:100000000C94C1000C94E9000C94E9000C94E900F4
:100010000C94E9000C94E9000C94E9000C94E900BC
:100020000C94E9000C94E9000C94E9000C94E900AC
:100030000C94E9000C94E9000C94E9000C94E9009C
:100040000C94B4050C94E9000C9424060C94FE0561
:100050000C94E9000C94E9000C94E9000C94E9007C
:100060000C94E9000C94E90005A84CCDB2D44EB92B
:100070003836A9020C50B9918688083CA6AAAA2A4B
:10008000BE000000803F00407A10F35A00A0724E7C
:1000900018090010A5D4E80000E87648170000E42D
:1000A0000B54020000CA9A3B000000E1F505000075
:1000B00080969800000040420F000000A0860100DA
:1000C0000000102700000000E803000000006400AA
:1000D000000000000A000000000001000000000015
:1000E0002C76D888DC674F0823DFC1DFAE59E1B139
:1000F000B796E5E3E453C63AE651997696E8E6C248
:100100008426EB898C9B62ED407C6FFCEFBC9C9F4E
:1001100040F2BAA56FA5F490055A2AF75C936B6C70
:10012000F9676DC11BFCE0E40D47FEF520E6B50064
:10013000D0ED902E0300943577050080841E0800D2
:1001400000204E0A000000C80C333333330F986E82
:1001500012831141EF8D2114893BE65516CFFEE63F
:10016000DB18D1844B381BF77C1D901DA4BBE42405
:10017000203284725E228100C9F124ECA1E53D2782
:100180009E0611241FBECFEFD8E0DEBFCDBF22E018
:10019000AEE9B1E001C01D92A834B207E1F711E069
:1001A000A0E0B1E0ECEBF0E202C005900D92AE39B8
:1001B000B107D9F710E0C1ECD0E004C02197FE01EF
:1001C0000E94A70BC03CD107C9F70E9456060C94A9
:1001D0005C100C940000CF92DF92EF92FF920F938D
:1001E0001F93CF93DF936C017A018B01C0E0D0E0C5
:1001F000CE15DF0581F0D8016D918D01D601ED910D
:10020000FC910190F081E02DC6010995892B11F038
:100210002196EECF7E01C701DF91CF911F910F9103
:10022000FF90EF90DF90CF900895089580E090E0E8
:100230000895FC01538D448D252F30E0842F90E0EC
:10024000821B930B541710F0CF96089501970895D1
:10025000FC01918D828D981761F0828DDF01A80FCE
:10026000B11D5D968C91928D9F5F9F73928F90E0F0
:1002700008958FEF9FEF0895FC01918D828D98175F
:1002800031F0828DE80FF11D858D90E008958FEF9C
:100290009FEF0895FC01918D228D892F90E0805C65
:1002A0009F4F821B91098F739927089587EA91E0E8
:1002B0000E944A0121E0892B09F420E0822F089551
:1002C000FC01848DDF01A80FB11DA35ABF4F2C91F3
:1002D000848D90E001968F739927848FA689B789C2
:1002E0002C93A089B1898C91837080648C93938DB9
:1002F000848D981306C00288F389E02D80818F7D5C
:1003000080830895EF92FF920F931F93CF93DF9313
:10031000EC0181E0888F9B8D8C8D981305C0E88956
:10032000F989808185FD26C0F62E0B8D10E00F5FC8
:100330001F4F0F731127E02E8C8DE8120CC00FB6E3
:1003400007FCFACFE889F989808185FFF5CFCE01D6
:100350000E946001F1CF8B8DFE01E80FF11DE35A81
:10036000FF4FF0829FB7F8940B8FEA89FB89808159
:1003700080620AC09FB7F894EE89FF896083E8899C
:10038000F98980818370806480839FBF81E090E0E1
:10039000DF91CF911F910F91FF90EF900895CF9330
:1003A000DF93EC01888D8823C9F0EA89FB8980817D
:1003B00085FD05C0A889B9898C9186FD0FC00FB64F
:1003C00007FCF5CF808185FFF2CFA889B9898C9190
:1003D00085FFEDCFCE010E946001E7CFDF91CF9185
:1003E000089580E090E0892B29F00E945601811148
:1003F0000C9400000895FC01808191810C94450CBF
:10040000CF93DF93EC0188819981009711F00E94CE
:10041000450C198218821D821C821B821A82DF9170
:10042000CF91089542E050E06CE271E087EA91E0FC
:100430000C94EB00CF93DF93009779F0FC010190CF
:100440000020E9F73197AF01481B590BBC0187EA3F
:1004500091E00E94EB00EC0102C0C0E0D0E00E94FD
:1004600012028C0F9D1FDF91CF910895CF93DF93E0
:10047000682F87EA91E00E948201EC010E9412023B
:100480008C0F9D1FDF91CF9108950E94940D0F93C3
:100490001F93CF93DF93EC0188819981009729F016
:1004A0002A813B812617370788F48B016F5F7F4FC6
:1004B0000E94CE0C009761F0998388831B830A8386
:1004C0002C813D81232B11F4FC01108281E001C0BD
:1004D00080E0DF91CF911F910F910895EF92FF92ED
:1004E0000F931F93CF93DF93EC017B018A01BA0135
:1004F0000E944702811104C0CE010E94000207C081
:100500001D830C83B701888199810E94A20DCE01C1
:10051000DF91CF911F910F91FF90EF900895CF93AE
:10052000DF93EC016115710559F0FB01019000208A
:10053000E9F73197AF01461B570B0E946E0202C0CC
:100540000E940002CE01DF91CF910895FC0111823B
:10055000108213821282158214826115710551F086
:10056000FB0101900020E9F73197AF01461B570BC3
:100570000C946E0208950F931F93CF93DF93CDB722
:10058000DEB762970FB6F894DEBF0FBECDBF8C0109
:10059000CB01F8011182108213821282158214821B
:1005A00050E0BE016F5F7F4F0E94EB06BE016F5FA0
:1005B0007F4FC8010E948F0262960FB6F894DEBF8B
:1005C0000FBECDBFDF91CF911F910F910895FB0119
:1005D000DC0111961C921E9213961C921E92129789
:1005E00015961C921E9214978617970749F0608102
:1005F00071816115710521F0448155810C946E0261
:1006000008954F925F926F927F928F929F92AF92D6
:10061000BF92CF92DF92EF92FF920F931F93CF93EF
:10062000DF93CDB7DEB7C15CD1090FB6F894DEBF5A
:100630000FBECDBFE091B701F091B80182E0808399
:10064000E091B301F091B4011082E091B501F09115
:10065000B6018FEC80831092BF01E091BB01F09155
:10066000BC0116E01083E091B901F091BA018081DC
:1006700080618083E091B901F091BA018081886046
:100680008083E091B901F091BA0180818068808314
:10069000E091B901F091BA0180818F7D80830E9441
:1006A000120285E0E6E0F1E0DE01AC54BF4F0190BC
:1006B0000D928A95E1F7E3E9F1E0DE01A459BF4F1D
:1006C00001900D921A95E1F785E0E9E9F1E0DE018C
:1006D000A754BF4F01900D928A95E1F783E0EBE0BC
:1006E000F1E0DE01AB5ABF4F01900D928A95E1F720
:1006F000E5E5F0E0EC0FFD1F33968CE0DF011D9285
:100700008A95E9F7E45AFF4F7F018F010B5F1F4F76
:10071000D7018D917D010E943602E016F106C1F7E6
:10072000FE01E459FF4F7F018F010A5F1F4FD70180
:100730008D917D010E943602E016F106C1F7FE019F
:10074000E754FF4F7F018F010B5F1F4FD7018D9142
:100750007D010E9436020E151F05C1F7FE01EB5AFE
:10076000FF4F7F018F01015F1F4FD7018D917D01E9
:100770000E943602E016F106C1F70E9412026E01D5
:10078000B1E4CB0ED11CF60180E090E0819391930F
:1007900001968A309105D1F74601E4E18E0E911C55
:1007A0002FE2A22E21E0B22E05E311E0CE01019648
:1007B0007C01D6018C9111969C91B2E0CB0ED11C9C
:1007C000BF92AF929F938F931F930F93FF92EF92DD
:1007D0000E94A90DC7010E941A020FB6F894DEBF4D
:1007E0000FBECDBF8C149D0421F70E941202A12CD4
:1007F000BB24B394412C512C32016E01F4E6CF0E90
:10080000D11C99E4892E91E0992E23EC35EF48EC28
:100810005CE3C301B2010E94750A2B013C010E94F6
:10082000170BC254DF4F688379838A839B83CE5B27
:10083000D040860123E045E0C301B2010E94CB060F
:1008400020E030E040E053E4C254DF4F688179811A
:100850008A819B81CE5BD0400E947F0920E030E0FE
:1008600040E053E40E94750A0E94E10A7F936F936F
:10087000DF92CF929F928F92FF92EF920E94A90DEA
:10088000C7010E941A0221E0A21AB1080FB6F8941B
:10089000DEBF0FBECDBF09F0B8CF0E9412026CE5DB
:1008A00071E0CE018E589F4F0E94A602EA961FAEBD
:1008B0001EAEEA97EC961FAE1EAEEC97EE961FAEFC
:1008C0001EAEEE9781E689831A82B701CE01885861
:1008D0009F4F0E948F0269E671E0CE0182589F4FC0
:1008E0000E94A602BE0168587F4FC7010E94E7021E
:1008F000AD80BE809AE0A90EB11CB501C7010E946F
:100900004702882309F42CC129813A818D819E8177
:100910006AE771E0820F931F0E94A20DBE82AD8232
:10092000B701CE018C579F4F0E94E702C7010E947A
:10093000FB014AE06DE070E0CE0186579F4F0E94B8
:10094000BB0280E480937C0080917A008064809375
:100950007A0080917A0086FDFCCF609178008091CA
:10096000790070E0782B4AE0CE0180579F4F0E94BB
:10097000BB0240E16DE270E0CE018A569F4F0E94BB
:10098000BB0242E06FEF70E0CE0184569F4F0E94A1
:10099000BB022FB7F8946091A3017091A4018091DC
:1009A000A5019091A6012FBFCE55DF4F1982188265
:1009B000C25AD040CC55DF4F19821882C45AD04059
:1009C000CA55DF4F19821882C65AD0402AE0A701C3
:1009D0000E940107B701CE018E559F4F0E948F02E2
:1009E000C855DF4F19821882C85AD040C655DF4F0C
:1009F00019821882CA5AD040C455DF4F1982188212
:100A0000CC5AD040870123E045E064E076E586EBF0
:100A100090E40E94CB06BC01CE0188559F4F0E94F6
:100A20008F024AE065E070E0C6010E94BB0265E803
:100A300071E0C7010E94A602D60114968D919C9187
:100A400015978D909C908114910409F485C00097AE
:100A5000B1F0AD80BE80A80EB91EB501C7010E94DD
:100A60004702882309F478C029813A818D819E81CB
:100A7000B401820F931F0E94A20DBE82AD82B70106
:100A8000CE0182559F4F0E94E702C7010E94FB01E1
:100A9000C6010E94FB01CE54DF4F48815981C25BE1
:100AA000D040C255DF4F68817981CE5AD04087EA65
:100AB00091E00E94EB000E941202CE0182559F4FEE
:100AC0000E94FB01CE0188559F4F0E94FB01CE0181
:100AD0008E559F4F0E94FB01CE0184569F4F0E946E
:100AE000FB01CE018A569F4F0E94FB01CE01805729
:100AF0009F4F0E94FB01CE0186579F4F0E94FB0132
:100B0000CE018C579F4F0E94FB01CE0182589F4F10
:100B10000E94FB01CE0188589F4F0E94FB01CE012D
:100B20008E589F4F0E94FB01CF53DF4F0FB6F894B2
:100B3000DEBF0FBECDBFDF91CF911F910F91FF9010
:100B4000EF90DF90CF90BF90AF909F908F907F906D
:100B50006F905F904F900895C7010E9400028FCF61
:100B6000C7010E940002DCCE1F920F920FB60F92B7
:100B700011242F933F938F939F93AF93BF938091B3
:100B8000A3019091A401A091A501B091A60130917B
:100B9000A20123E0230F2D3720F40196A11DB11DE2
:100BA00005C026E8230F0296A11DB11D2093A201C6
:100BB0008093A3019093A401A093A501B093A601F3
:100BC00080919E0190919F01A091A001B091A101FF
:100BD0000196A11DB11D80939E0190939F01A0934A
:100BE000A001B093A101BF91AF919F918F913F91CF
:100BF0002F910F900FBE0F901F9018951F920F927C
:100C00000FB60F9211242F933F934F935F936F93DF
:100C10007F938F939F93AF93BF93EF93FF9387EA55
:100C200091E00E946001FF91EF91BF91AF919F9180
:100C30008F917F916F915F914F913F912F910F9085
:100C40000FBE0F901F9018951F920F920FB60F9224
:100C500011242F938F939F93EF93FF93E091B7010C
:100C6000F091B8018081E091BD01F091BE0182FD5B
:100C700012C090818091C0018F5F8F732091C1015C
:100C8000821751F0E091C001F0E0E955FE4F958FD9
:100C90008093C00101C08081FF91EF919F918F915E
:100CA0002F910F900FBE0F901F901895789484B5D8
:100CB000826084BD84B5816084BD85B5826085BD58
:100CC00085B5816085BD80916E00816080936E00E6
:100CD00010928100809181008260809381008091D8
:100CE0008100816080938100809180008160809389
:100CF00080008091B10084608093B1008091B00049
:100D000081608093B00080917A00846080937A0043
:100D100080917A00826080937A0080917A0081606D
:100D200080937A0080917A00806880937A00109294
:100D3000C1000E9401030E94F101FDCFE7EAF1E04A
:100D40001382128288EE93E0A0E0B0E08483958362
:100D5000A683B7838EE191E09183808385EC90E058
:100D60009587848784EC90E09787868780EC90E075
:100D7000918B808B81EC90E0938B828B82EC90E066
:100D8000958B848B86EC90E0978B868B118E128EE0
:100D9000138E148E0895EF920F931F93CF93DF93CA
:100DA000E80147FD02C034E001C034E1042E000C2C
:100DB000550B57FF03C0519541955109E32E022F62
:100DC000242FAE010E943D07CE01DF91CF911F91EC
:100DD0000F91EF9008954532510520F4423010F004
:100DE0000C94F606FB011082CB010895BB274A3014
:100DF00031F4992322F4BDE2909581959F4F0C9494
:100E00002407BB27FA01A62F6217710581059105FA
:100E1000330B30FB66F0AA27660F771F881F991FD8
:100E2000AA1FA21710F0A21B63953850A9F7A05D66
:100E3000AA3308F0A95DA19336F7B111B1931082DE
:100E4000CA010C946F09BB27FB015527AA27880FFD
:100E5000991FAA1FA41710F0A41B83955051B9F72E
:100E6000A05DAA3308F0A95DA193009779F7B111AD
:100E7000B1931192CB010C946F09A9E0B0E0E3E4C7
:100E8000F7E00C94430A6A01122FB02E2BE32017CF
:100E900020F0FF24F394F00E02C02CE3F22E0F2D6D
:100EA00027E0AE014F5F5F4F0E949708BC01498168
:100EB000842F8970813031F0E1FC06C0E0FE06C06D
:100EC00090E205C09DE203C09BE201C090E05E2D70
:100ED000507143FF3CC0911102C083E001C084E027
:100EE000811718F4212F281B01C020E051110BC0DD
:100EF000F601822F30E2882319F031938150FBCF25
:100F0000C20ED11C20E0992329F0D6019C93F60152
:100F100031966F01C6010396E2FE0AC03EE4D60197
:100F20003C9341E411964C93119712963C9306C062
:100F30003EE6F601308341E641833283FC01322FE5
:100F400040E2332309F442C041933150FACF42FFCB
:100F500044C0911102C083E001C084E0811718F4FD
:100F6000212F281B01C020E051110BC0F601822F58
:100F700030E2882319F031938150FBCFC20ED11C8F
:100F800020E0992329F0D6019C93F60131966F0158
:100F9000C6010396E2FE0BC039E4D6013C933EE461
:100FA00011963C93119736E412963C9307C039E6AC
:100FB000F60130833EE6318336E63283FC01322F80
:100FC00040E2332319F041933150FBCFFC01E20F93
:100FD000F11D10828EEF9FEFA6C021E030E091114D
:100FE00002C020E030E0161617061CF4FB01319613
:100FF00002C0E1E0F0E02E0F3F1FBB2021F0EB2DFF
:10100000F0E0319602C0E0E0F0E02E0F3F1FE12F4C
:10101000F0E02E173F071CF4121B212F01C020E027
:101020008E2D887159F4F601822F30E2882319F051
:1010300031938150FBCFC20ED11C20E0992329F0BF
:10104000D6019C93F60131966F0151110BC0F60148
:10105000822F90E3882319F091938150FBCFC20E29
:10106000D11C20E00F2D060F9A81342F307144FFE0
:1010700003C0913309F40150101624F4093018F01C
:1010800008E001C001E0AB0177FF02C040E050E0A2
:10109000FB01E41BF50BA1E0B0E0AC0FBD1FEA0FB4
:1010A000FB1F8EE2A82E4B01801A91080B2D10E039
:1010B0001195019511094F3FBFEF5B0721F4D60150
:1010C000AC9211966D01641775072CF08416950685
:1010D00014F4818101C080E3415051093196D60159
:1010E00011967D014017510724F0D6018C936701BA
:1010F000E2CF6417750739F4963320F4953319F469
:10110000311101C081E3F6018083F701822F90E263
:10111000882319F091938150FBCFF701E20FF11D65
:10112000108280E090E02996ECE00C945F0A283071
:1011300008F027E03327DA01990F311D87FD916010
:1011400000966105710539F432602E5F3D9330E3FE
:101150002A95E1F708959F3F30F0803871056105C9
:1011600009F03C5F3C5F3D93913008F08068911D31
:10117000DF93CF931F930F93FF92EF92192F987FD6
:101180009695E92F96959695E90FFF27E052FF4F28
:1011900099273327EE24FF24A701E701059008943F
:1011A000079428F4360FE71EF81E491F511D660FDD
:1011B000771F881F991F0694A1F70590079428F4BC
:1011C000E70EF81E491F561FC11D770F881F991F74
:1011D000661F0694A1F70590079428F4F80E491F9E
:1011E000561FC71FD11D880F991F661F771F0694B2
:1011F000A1F70590079420F4490F561FC71FD81F69
:10120000990F661F771F881F0694A9F78491109580
:10121000177041F0D695C79557954795F794E79481
:101220001A95C1F7E6E8F0E06894159015913591AC
:101230006591959105907FE27395E118F10A430B52
:10124000560BC90BD009C0F7E10CF11E431F561F06
:10125000C91FD01D7EF4703311F48A95E6CFE8944F
:10126000015030F0080F0AF40027021708F4202F6D
:101270002395022F7A3328F079E37D932A95E9F7B5
:1012800010C07D932A9589F60694979567953795B2
:1012900017951794E118F10A430B560BC90BD009A7
:1012A00098F023957E9173957A3308F070E37C93E0
:1012B0002013B8F77E9170617D9330F0839571E3D0
:1012C0007D9370E32A95E1F71124EF90FF900F9141
:1012D0001F91CF91DF91992787FD90950895DC01AB
:1012E000FC01672F71917723E1F7329704C07C915D
:1012F0006D9370836291AE17BF07C8F308950E9483
:1013000092090C94030A0E94F50938F00E94FC0926
:1013100020F0952311F00C94EC090C94F20911249F
:101320000C94370A0E94140A70F3959FC1F3950F2D
:1013300050E0551F629FF001729FBB27F00DB11D59
:10134000639FAA27F00DB11DAA1F649F6627B00DE9
:10135000A11D661F829F2227B00DA11D621F739FD2
:10136000B00DA11D621F839FA00D611D221F749FE0
:101370003327A00D611D231F849F600D211D822F27
:10138000762F6A2F11249F5750409AF0F1F088234E
:101390004AF0EE0FFF1FBB1F661F771F881F91507B
:1013A0005040A9F79E3F510580F00C94EC090C9435
:1013B000370A5F3FE4F3983ED4F3869577956795B7
:1013C000B795F795E7959F5FC1F7FE2B880F911DA5
:1013D0009695879597F9089597F99F6780E870E04B
:1013E00060E008959FEF80EC089500240A9416169B
:1013F000170618060906089500240A941216130603
:10140000140605060895092E0394000C11F4882390
:1014100052F0BB0F40F4BF2B11F460FF04C06F5FAC
:101420007F4F8F4F9F4F089557FD9058440F551F82
:1014300059F05F3F71F04795880F97FB991F61F056
:101440009F3F79F087950895121613061406551FCD
:10145000F2CF4695F1DF08C0161617061806991F39
:10146000F1CF86957105610508940895E894BB272E
:1014700066277727CB0197F908952F923F924F92D5
:101480005F926F927F928F929F92AF92BF92CF9214
:10149000DF92EF92FF920F931F93CF93DF93CDB71D
:1014A000DEB7CA1BDB0B0FB6F894DEBF0FBECDBF95
:1014B00009942A88398848885F846E847D848C8466
:1014C0009B84AA84B984C884DF80EE80FD800C816F
:1014D0001B81AA81B981CE0FD11D0FB6F894DEBF52
:1014E0000FBECDBFED0108955058BB27AA270E941B
:1014F0008C0A0C94030A0E94F50938F00E94FC093A
:1015000020F039F49F3F19F426F40C94F2090EF4FC
:10151000E095E7FB0C94EC09E92F0E94140A58F3BC
:10152000BA17620773078407950720F079F4A6F5C8
:101530000C94360A0EF4E0950B2EBA2FA02D0B0159
:10154000B90190010C01CA01A0011124FF27591B08
:1015500099F0593F50F4503E68F11A16F040A22F0E
:10156000232F342F4427585FF3CF4695379527957F
:10157000A795F0405395C9F77EF41F16BA0B620B7E
:10158000730B840BBAF09150A1F0FF0FBB1F661FC5
:10159000771F881FC2F70EC0BA0F621F731F841F08
:1015A00048F4879577956795B795F7959E3F08F02E
:1015B000B0CF9395880F08F09927EE0F97958795F0
:1015C00008950E94E80A6894B1110C94370A0895AE
:1015D0000E941C0A88F09F5798F0B92F9927B7519D
:1015E000B0F0E1F0660F771F881F991F1AF0BA95C7
:1015F000C9F714C0B13091F00E94360AB1E00895E5
:101600000C94360A672F782F8827B85F39F0B93FD6
:10161000CCF3869577956795B395D9F73EF4909579
:101620008095709561957F4F8F4F9F4F08959F9341
:101630000E94210B0F9007FCEE5F0C944A0B0C9458
:10164000F2090E941C0AD8F3E894E0E0BB279F57F8
:10165000F0F02AED3FE049EC06C0EE0FBB0F661F2D
:10166000771F881F28F0B23A62077307840728F0B3
:10167000B25A620B730B840BE3959A9572F780381C
:1016800030F49A95BB0F661F771F881FD2F79048DA
:101690000C94600BEF93E0FF07C0A2EA2AED3FE055
:1016A00049EC5FEB0E948C0A0E94030A0F9003949E
:1016B00001FC9058E8E6F0E00C946C0B9F3F31F091
:1016C000915020F4879577956795B795880F911D70
:1016D0009695879597F908959F938F937F936F932E
:1016E000FF93EF939B01AC010E947F09EF91FF9163
:1016F0000E94800B2F913F914F915F910C947F0935
:10170000DF93CF931F930F93FF92EF92DF927B01B2
:101710008C01689406C0DA2EEF010E949209FE0146
:10172000E894A5912591359145915591A6F3EF0146
:101730000E948C0AFE019701A801DA9469F7DF90F4
:10174000EF90FF900F911F91CF91DF910895EE0FD1
:10175000FF1F0590F491E02D09940F931F93CF93F1
:10176000DF938230910510F482E090E0E091460230
:10177000F091470220E030E0A0E0B0E0309719F1AE
:10178000408151810281138148175907C8F084179D
:10179000950769F4109731F012960C9312971396EF
:1017A0001C9327C0009346021093470222C02115C4
:1017B000310519F04217530718F49A01BD01EF01E2
:1017C000DF01F801DBCF21153105F9F0281B390BBA
:1017D0002430310580F48A819B816115710521F0E7
:1017E000FB019383828304C0909347028093460257
:1017F000FE01329644C0FE01E20FF31F81939193E4
:1018000022503109398328833AC020914402309113
:101810004502232B41F420910201309103013093C2
:1018200045022093440220910001309101012115CD
:10183000310541F42DB73EB74091040150910501A7
:10184000241B350BE0914402F0914502E217F307A7
:10185000A0F42E1B3F0B2817390778F0AC014E5F20
:101860005F4F2417350748F04E0F5F1F5093450216
:10187000409344028193919302C0E0E0F0E0CF01F5
:10188000DF91CF911F910F910895CF93DF93009730
:1018900009F481C0FC01329713821282A0914602A2
:1018A000B0914702109781F420813181820F931FFC
:1018B00020914402309145022817390751F5F093E1
:1018C0004502E093440267C0ED0120E030E0CE170E
:1018D000DF0740F44A815B819E0141155105F1F01B
:1018E000EA01F5CFD383C28340815181840F951FD4
:1018F000C817D90759F488819981840F951F0296DA
:10190000918380838A819B81938382832115310512
:1019100029F4F0934702E09346023DC0E901FB83BE
:10192000EA8349915991C40FD51FEC17FD0761F463
:1019300080819181840F951F0296E90199838883A4
:10194000828193819B838A83E0E0F0E012968D91FF
:101950009C911397009719F0FD01DC01F7CF8D9151
:101960009C9111979D012E5F3F4F820F931F2091F5
:101970004402309145022817390769F4309729F459
:10198000109247021092460202C013821282B09354
:101990004502A0934402DF91CF910895A0E0B0E00A
:1019A000E4EDFCE00C94410AEC01009721F4CB013A
:1019B0000E94AD0BB4C0FC01E60FF71F9C01225042
:1019C0003109E217F30708F4A8C0D9010D911C9161
:1019D000119706171707B0F00530110508F49BC0E2
:1019E000C80104978617970708F495C0025011099B
:1019F000061B170B019311936D937C93CF010E94EB
:101A0000450C89C05B01A01AB10A4C01800E911EE1
:101A1000A0914602B0914702612C712CE12CF12C6F
:101A2000109709F446C08D919C911197A815B9059E
:101A3000B1F56C0142E0C40ED11CCA14DB0478F18C
:101A40004C018A189B08640142E0C40ED11C129616
:101A5000BC9012971396AC91B5E0CB16D10440F030
:101A6000B282A38391828082D9016D937C9309C055
:101A70000E5F1F4F800F911FF90191838083EB2D23
:101A8000FA2FE114F10431F0D7011396FC93EE9391
:101A9000129741C0F0934702E09346023CC068169B
:101AA000790608F43C017D0112960D90BC91A02DA1
:101AB000B7CF809144029091450288169906E1F4CF
:101AC00066167706C8F48091000190910101009795
:101AD00041F48DB79EB74091040150910501841BDC
:101AE000950BE817F907C8F4F0934502E093440218
:101AF000F901718360830FC0CB010E94AD0B7C01A3
:101B0000009759F0A801BE010E94990DCE010E94D4
:101B1000450CC70104C0CE0102C080E090E0CDB703
:101B2000DEB7EEE00C945D0A81E090E0F8940C944E
:101B30005C10FB01DC0102C001900D92415050404D
:101B4000D8F70895FB01DC0101900D920020E1F728
:101B50000895AEE0B0E0EFEAFDE00C944B0A0D8989
:101B60001E8986E08C831A8309838FEF9FE79E830B
:101B70008D83AE01475E5F4F6F89788DCE010196F0
:101B80000E94CB0DEF81F885E00FF11F10822E9699
:101B9000E4E00C94670AABE0B0E0E1EDFDE00C940A
:101BA0003D0A6C017B018A01FC0117821682838148
:101BB00081FFCCC1CE0101963C01F6019381F70172
:101BC00093FD859193FF81917F01882309F4BAC128
:101BD000853239F493FD859193FF81917F018532A0
:101BE00029F4B60190E00E94C20FE7CF912C212C7E
:101BF000312CFFE1F315D8F08B3279F038F48032D4
:101C000079F08332A1F4232D20611DC08D3261F063
:101C1000803369F4232D216016C0832D8260382E15
:101C2000E32DE4603E2E2AC0F32DF8601DC037FC82
:101C30002DC020ED280F2A3040F08E32B9F436FC4A
:101C400081C1232D2064322E19C036FE06C08AE0E1
:101C5000989E200D1124922E11C0EAE02E9E200D98
:101C60001124222EF32DF0623F2E08C08C3621F471
:101C7000832D8068382E02C0883641F4F70193FD29
:101C8000859193FF81917F018111B3CF982F9F7D23
:101C90009554933028F40C5F1F4F9FE399830DC038
:101CA000833631F0833771F0833509F059C021C094
:101CB000F801808189830E5F1F4F88248394912CC3
:101CC000530113C02801F2E04F0E511CF801A0800F
:101CD000B18036FE03C0692D70E002C06FEF7FEF68
:101CE000C5010E94B70F4C018201F32DFF773F2EF3
:101CF00016C0280122E0420E511CF801A080B180DC
:101D000036FE03C0692D70E002C06FEF7FEFC501A2
:101D10000E94AC0F4C01F32DF0683F2E820133FC82
:101D20001BC0822D90E088169906B0F4B60180E2BF
:101D300090E00E94C20F2A94F4CFF50137FC859100
:101D400037FE81915F01B60190E00E94C20F211021
:101D50002A9421E0821A91088114910471F7E8C055
:101D6000843611F0893641F5F80137FE07C06081ED
:101D70007181828193810C5F1F4F08C060817181E6
:101D8000072E000C880B990B0E5F1F4FF32DFF766B
:101D90003F2E97FF09C090958095709561957F4F74
:101DA0008F4F9F4FF0683F2E2AE030E0A3010E9442
:101DB000FE0F882E861845C0853731F4232D2F7EDF
:101DC000B22E2AE030E025C0932D997FB92E8F36B0
:101DD000C1F018F4883579F0B5C0803719F088372C
:101DE00021F0B0C0E92FE061BE2EB4FE0DC0FB2D86
:101DF000F460BF2E09C034FE0AC0292F2660B22E1F
:101E000006C028E030E005C020E130E002C020E15B
:101E100032E0F801B7FE07C0608171818281938151
:101E20000C5F1F4F06C06081718180E090E00E5F03
:101E30001F4FA3010E94FE0F882E8618FB2DFF77EF
:101E40003F2E36FE0DC0232D2E7FA22E891458F46E
:101E500034FE0BC032FC09C0832D8E7EA82E05C037
:101E6000B82CA32C03C0B82C01C0B92CA4FE0FC001
:101E7000FE01E80DF11D8081803321F49A2D997EB9
:101E8000A92E09C0A2FE06C0B394B39404C08A2D43
:101E9000867809F0B394A3FC11C0A0FE06C0B2146A
:101EA00088F4280C922C9B180EC0B21460F4B60172
:101EB00080E290E00E94C20FB394F7CFB21418F4FE
:101EC0002B1802C0982C212CA4FE10C0B60180E370
:101ED00090E00E94C20FA2FE17C0A1FC03C088E7D9
:101EE00090E002C088E590E0B6010CC08A2D8678AB
:101EF00059F0A1FE02C08BE201C080E2A7FC8DE296
:101F0000B60190E00E94C20F891438F4B60180E354
:101F100090E00E94C20F9A94F7CF8A94F301E80DE3
:101F2000F11D8081B60190E00E94C20F8110F5CFB3
:101F3000222009F442CEB60180E290E00E94C20F56
:101F40002A94F6CFF6018681978102C08FEF9FEF2A
:101F50002B96E2E10C94590AFC0105906150704007
:101F60000110D8F7809590958E0F9F1F0895FC0162
:101F70006150704001900110D8F7809590958E0FB8
:101F80009F1F08950F931F93CF93DF93FB0123812E
:101F900021FD03C08FEF9FEF2CC022FF16C04681AA
:101FA0005781248135814217530744F4A081B181C0
:101FB0009D012F5F3F4F318320838C932681378192
:101FC0002F5F3F4F3783268314C08B01EC01FB0149
:101FD0000084F185E02D0995892BE1F6D80116964C
:101FE0008D919C911797019617969C938E931697B7
:101FF000CE01DF91CF911F910F910895FA01AA2789
:10200000283051F1203181F1E8946F936E7F6E5F3B
:102010007F4F8F4F9F4FAF4FB1E03ED0B4E03CD0E9
:10202000670F781F891F9A1FA11D680F791F8A1FCC
:10203000911DA11D6A0F711D811D911DA11D20D033
:1020400009F468943F912AE0269F11243019305DED
:102050003193DEF6CF010895462F4770405D4193DE
:10206000B3E00FD0C9F7F6CF462F4F70405D4A332B
:1020700018F0495D31FD4052419302D0A9F7EACFF3
:10208000B4E0A6959795879577956795BA95C9F722
:1020900000976105710508959B01AC010A2E069415
:1020A0005795479537952795BA95C9F7620F731FCE
:0C20B000841F951FA01D0895F894FFCF19
:1020BC0000004802800054657374006F6B000000D0
:1020CC000000000000000000000000000000820181
:1020DC00EB001901CF014A0128013C010D0A0068EF
:1020EC00656C6C6F0076616C7565735B636E745DAB
:1020FC00203D202564202573007261643D25732CDE
:10210C0020776176655B695D3D25640048656C6C84
:10211C006F20537472696E67005468697320697319
:10212C00206120737472696E67002077697468206F
:10213C006D6F72650048656C6C6F20537472696EBC
:0E214C0067200048616C6C6F0056656C6F0078
:00000001FF
