:100000000C9435000C945D000C945D000C945D0024
:100010000C945D000C945D000C945D000C945D00EC
:100020000C945D000C945D000C945D000C945D00DC
:100030000C945D000C945D000C945D000C945D00CC
:100040000C9479010C945D000C94E9010C94C301AB
:100050000C945D000C945D000C945D000C945D00AC
:100060000C945D000C945D00A40211241FBECFEF20
:10007000D8E0DEBFCDBF11E0A0E0B1E0ECEBF5E0F1
:1000800002C005900D92A032B107D9F721E0A0E29D
:10009000B1E001C01D92A63CB207E1F710E0C5E354
:1000A000D0E004C02197FE010E94D102C433D107E1
:1000B000C9F70E941B020C94DC020C940000CF9242
:1000C000DF92EF92FF920F931F93CF93DF936C0118
:1000D0007A018B01C0E0D0E0CE15DF0581F0D801B8
:1000E0006D918D01D601ED91FC910190F081E02D93
:1000F000C6010995892B11F02196EECF7E01C7012B
:10010000DF91CF911F910F91FF90EF90DF90CF90F3
:100110000895089580E090E00895FC01538D448D8A
:10012000252F30E0842F90E0821B930B541710F0A2
:10013000CF96089501970895FC01918D828D9817AF
:1001400061F0828DDF01A80FB11D5D968C91928DBB
:100150009F5F9F73928F90E008958FEF9FEF0895B8
:10016000FC01918D828D981731F0828DE80FF11D81
:10017000858D90E008958FEF9FEF0895FC01918D9C
:10018000228D892F90E0805C9F4F821B91098F7395
:100190009927089589E291E00E94BE0021E0892B11
:1001A00009F420E0822F0895FC01848DDF01A80F5F
:1001B000B11DA35ABF4F2C91848D90E001968F738F
:1001C0009927848FA689B7892C93A089B1898C91AE
:1001D000837080648C93938D848D981306C00288FD
:1001E000F389E02D80818F7D80830895EF92FF92C7
:1001F0000F931F93CF93DF93EC0181E0888F9B8D4A
:100200008C8D981305C0E889F989808185FD26C009
:10021000F62E0B8D10E00F5F1F4F0F731127E02E8E
:100220008C8DE8120CC00FB607FCFACFE889F9896B
:10023000808185FFF5CFCE010E94D400F1CF8B8D58
:10024000FE01E80FF11DE35AFF4FF0829FB7F894CB
:100250000B8FEA89FB89808180620AC09FB7F8947E
:10026000EE89FF896083E889F989808183708064E1
:1002700080839FBF81E090E0DF91CF911F910F912C
:10028000FF90EF900895CF93DF93EC01888D882342
:10029000C9F0EA89FB89808185FD05C0A889B989F3
:1002A0008C9186FD0FC00FB607FCF5CF808185FFCE
:1002B000F2CFA889B9898C9185FFEDCFCE010E943C
:1002C000D400E7CFDF91CF91089580E090E0892BB3
:1002D00029F00E94CA0081110C940000089542E0A8
:1002E00050E062E171E089E291E00C945F000E94CD
:1002F000D7021F920F920FB60F9211242F933F93A4
:100300008F939F93AF93BF93809125019091260186
:10031000A0912701B09128013091240123E0230FFF
:100320002D3720F40196A11DB11D05C026E8230F2D
:100330000296A11DB11D2093240180932501909365
:100340002601A0932701B09328018091200190916C
:100350002101A0912201B09123010196A11DB11D9F
:100360008093200190932101A0932201B093230157
:10037000BF91AF919F918F913F912F910F900FBEA1
:100380000F901F9018951F920F920FB60F92112485
:100390002F933F934F935F936F937F938F939F938D
:1003A000AF93BF93EF93FF9389E291E00E94D40053
:1003B000FF91EF91BF91AF919F918F917F916F913D
:1003C0005F914F913F912F910F900FBE0F901F9013
:1003D00018951F920F920FB60F9211242F938F939F
:1003E0009F93EF93FF93E0913901F0913A0180815F
:1003F000E0913F01F091400182FD12C09081809117
:1004000042018F5F8F7320914301821751F0E09179
:100410004201F0E0E75DFE4F958F8093420101C0FD
:100420008081FF91EF919F918F912F910F900FBE3F
:100430000F901F901895789484B5826084BD84B520
:10044000816084BD85B5826085BD85B5816085BDCF
:1004500080916E00816080936E0010928100809187
:10046000810082608093810080918100816080930F
:100470008100809180008160809380008091B10034
:1004800084608093B1008091B00081608093B0005F
:1004900080917A00846080937A0080917A008260F3
:1004A00080937A0080917A00816080937A008091B5
:1004B0007A00806880937A001092C100E09139013F
:1004C000F0913A0182E08083E0913501F0913601AC
:1004D0001082E0913701F09138018FEC8083109207
:1004E0004101E0913D01F0913E0186E08083E09181
:1004F0003B01F0913C01808180618083E0913B0170
:10050000F0913C01808188608083E0913B01F09113
:100510003C01808180688083E0913B01F0913C0147
:1005200080818F7D80830E946F014AE050E065E109
:1005300071E089E291E00E945F000E946F010E94D9
:100540006F010E946501FDCFE9E2F1E013821282A2
:1005500088EE93E0A0E0B0E084839583A683B78320
:1005600084E091E09183808385EC90E09587848797
:1005700084EC90E09787868780EC90E0918B808B6D
:1005800081EC90E0938B828B82EC90E0958B848B56
:1005900086EC90E0978B868B118E128E138E148EC4
:1005A0000895EE0FFF1F0590F491E02D099481E06E
:0C05B00090E0F8940C94DC02F894FFCF6B
:1005BC0000000000F6005F008D004301BE009C00AF
:1005CC00B0000D0A0067757465204C61756E65008E
:00000001FF
