:100000000C945D000C9485000C9485000C94850084
:100010000C9485000C9485000C9485000C9485004C
:100020000C9485000C9485000C9485000C9485003C
:100030000C9485000C9485000C9485000C9485002C
:100040000C94DF020C9485000C944F030C9429034C
:100050000C9485000C9485000C9485000C9485000C
:100060000C9485000C94850000000008000201003B
:100070000003040700000000000000000000000072
:10008000250028002B0000000000240027002A0083
:10009000040404040404040402020202020203032E
:1000A0000303030301020408102040800102040836
:1000B0001020010204081020780411241FBECFEF85
:1000C000D8E0DEBFCDBF11E0A0E0B1E0E4E6F9E0AA
:1000D00002C005900D92A035B107D9F721E0A0E547
:1000E000B1E001C01D92A83FB207E1F710E0CDE5F5
:1000F000D0E004C02197FE010E94A504CC35D107B1
:10010000C9F70E9481030C94B0040C94000090E0A5
:10011000FC01EC55FF4F2491FC01E057FF4F849107
:10012000882399F090E0880F991FFC01EA57FF4F50
:10013000A591B491FC01E458FF4F859194918FB73C
:10014000F894EC91E22BEC938FBF089590E0FC01C2
:10015000E859FF4F2491FC01EC55FF4F3491FC010D
:10016000E057FF4FE491EE2309F43CC0222339F11C
:10017000233091F038F42130A9F0223001F584B514
:100180008F7D12C0273091F02830A1F02430B9F4CF
:10019000809180008F7D03C0809180008F77809355
:1001A00080000DC084B58F7784BD09C08091B000F8
:1001B0008F7703C08091B0008F7D8093B000F0E016
:1001C000EE0FFF1FE458FF4FA591B4919FB7F8942D
:1001D000611104C08C913095382302C0EC913E2B04
:1001E0003C939FBF0895CF93DF93EC0185E00E947D
:1001F0008700209711F460E004C0CF3FD10531F4AF
:1002000061E085E0DF91CF910C94A600EDE6F0E08F
:10021000E491E330F9F048F4E130B9F0E230A1F5CF
:1002200084B5806284BDC8BD34C0E730E9F0E830F1
:1002300019F1E43049F5809180008062809380005C
:10024000D0938B00C0938A0024C084B5806884BD9D
:10025000C7BD1FC080918000806880938000D093CC
:100260008900C093880015C08091B0008068809399
:10027000B000C093B3000DC08091B0008062809345
:10028000B000C093B40005C0C038D1050CF0B8CFA1
:10029000B2CFDF91CF9108953FB7F8948091570185
:1002A00090915801A0915901B0915A0126B5A89B8F
:1002B00005C02F3F19F00196A11DB11D3FBFBA2FF8
:1002C000A92F982F8827820F911DA11DB11DBC0158
:1002D000CD0142E0660F771F881F991F4A95D1F71D
:1002E00008958F929F92AF92BF92CF92DF92EF923A
:1002F000FF926B017C010E944C014B015C01C11417
:10030000D104E104F104F1F00E944C01DC01CB01C5
:1003100088199909AA09BB09883E9340A105B1052E
:1003200070F321E0C21AD108E108F10888EE880EC6
:1003300083E0981EA11CB11CC114D104E104F10496
:1003400019F7DDCFFF90EF90DF90CF90BF90AF9087
:100350009F908F900895CF92DF92EF92FF920F932C
:100360001F93CF93DF936C017A018B01C0E0D0E043
:10037000CE15DF0581F0D8016D918D01D601ED918B
:10038000FC910190F081E02DC6010995892B11F0B7
:100390002196EECF7E01C701DF91CF911F910F9182
:1003A000FF90EF90DF90CF900895089580E090E067
:1003B0000895FC01538D448D252F30E0842F90E06B
:1003C000821B930B541710F0CF9608950197089550
:1003D000FC01918D828D981761F0828DDF01A80F4D
:1003E000B11D5D968C91928D9F5F9F73928F90E06F
:1003F00008958FEF9FEF0895FC01918D828D9817DE
:1004000031F0828DE80FF11D858D90E008958FEF1A
:100410009FEF0895FC01918D228D892F90E0805CE3
:100420009F4F821B91098F73992708958BE591E067
:100430000E940A0221E0892B09F420E0822F08950E
:10044000FC01848DDF01A80FB11DA35ABF4F2C9171
:10045000848D90E001968F739927848FA689B78940
:100460002C93A089B1898C91837080648C93938D37
:10047000848D981306C00288F389E02D80818F7DDA
:1004800080830895EF92FF920F931F93CF93DF9392
:10049000EC0181E0888F9B8D8C8D981305C0E889D5
:1004A000F989808185FD26C0F62E0B8D10E00F5F47
:1004B0001F4F0F731127E02E8C8DE8120CC00FB662
:1004C00007FCFACFE889F989808185FFF5CFCE0155
:1004D0000E942002F1CF8B8DFE01E80FF11DE35A3F
:1004E000FF4FF0829FB7F8940B8FEA89FB898081D8
:1004F00080620AC09FB7F894EE89FF896083E8891B
:10050000F98980818370806480839FBF81E090E05F
:10051000DF91CF911F910F91FF90EF900895CF93AE
:10052000DF93EC01888D8823C9F0EA89FB898081FB
:1005300085FD05C0A889B9898C9186FD0FC00FB6CD
:1005400007FCF5CF808185FFF2CFA889B9898C910E
:1005500085FFEDCFCE010E942002E7CFDF91CF9142
:10056000089580E090E0892B29F00E941602811105
:100570000C9400000895CF93DF93009779F0FC016D
:1005800001900020E9F73197AF01481B590BBC01DE
:100590008BE591E00E94AB01EC0102C0C0E0D0E02D
:1005A00042E050E062E171E08BE591E00E94AB0136
:1005B0008C0F9D1FDF91CF9108950E94AB041F9275
:1005C0000F920FB60F9211242F933F938F939F9307
:1005D000AF93BF938091530190915401A091550125
:1005E000B09156013091520123E0230F2D3720F4B2
:1005F0000196A11DB11D05C026E8230F0296A11D7D
:10060000B11D209352018093530190935401A09304
:100610005501B09356018091570190915801A091D6
:100620005901B0915A010196A11DB11D8093570146
:1006300090935801A0935901B0935A01BF91AF9183
:100640009F918F913F912F910F900FBE0F901F9010
:1006500018951F920F920FB60F9211242F933F936C
:100660004F935F936F937F938F939F93AF93BF93BA
:10067000EF93FF938BE591E00E942002FF91EF91B1
:10068000BF91AF919F918F917F916F915F914F91AA
:100690003F912F910F900FBE0F901F9018951F92B2
:1006A0000F920FB60F9211242F938F939F93EF9376
:1006B000FF93E0916B01F0916C018081E0917101F9
:1006C000F091720182FD12C09081809174018F5F60
:1006D0008F7320917501821751F0E0917401F0E061
:1006E000E55AFE4F958F8093740101C08081FF9180
:1006F000EF919F918F912F910F900FBE0F901F90B0
:100700001895789484B5826084BD84B5816084BD79
:1007100085B5826085BD85B5816085BD80916E009F
:10072000816080936E0010928100809181008260D0
:10073000809381008091810081608093810080910D
:1007400080008160809380008091B10084608093FC
:10075000B1008091B00081608093B00080917A00F8
:10076000846080937A0080917A00826080937A001E
:1007700080917A00816080937A0080917A0080680D
:1007800080937A001092C10085E00E94870083E088
:100790000E94870084E00E948700E0916B01F09145
:1007A0006C0182E08083E0916701F0916801108222
:1007B000E0916901F0916A018FEC808310927301DE
:1007C000E0916F01F091700186E08083E0916D010E
:1007D000F0916E01808180618083E0916D01F091E4
:1007E0006E01808188608083E0916D01F0916E01DF
:1007F000808180688083E0916D01F0916E0180813D
:100800008F7D808385E191E00E94BB0261E085E0FD
:100810000E94A6001092510110925001C091500107
:10082000D0915101C530D10514F561E083E00E94FB
:10083000A60060E084E00E94A60064EF71E080E022
:1008400090E00E94710160E083E00E94A60061E0F8
:1008500084E00E94A60064EF71E080E090E00E94D6
:1008600071012196D0935101C0935001D7CF60E020
:1008700085E00E94A6008BE291E00E94BB0268EB3B
:100880007BE080E090E00E94710160E085E00E94E2
:10089000A60068EB7BE080E090E00E94710160E0E0
:1008A00083E00E94A6008DE391E00E94BB0260ED10
:1008B00077E080E090E00E94710184EB90E00E947C
:1008C000F30080E890E00E94F30082E390E00E9451
:1008D000F30080E890E00E94F30084EB90E00E9437
:1008E000F3008FEF90E00E94F3000E94B1028ACFE4
:1008F000EBE5F1E01382128288EE93E0A0E0B0E035
:1009000084839583A683B78384E091E09183808379
:1009100085EC90E09587848784EC90E097878687C4
:1009200080EC90E0918B808B81EC90E0938B828BBC
:1009300082EC90E0958B848B86EC90E0978B868B95
:10094000118E128E138E148E0895EE0FFF1F0590D8
:10095000F491E02D099481E090E0F8940C94B004B7
:04096000F894FFCF39
:10096400000000004202AB01D9018F020A02E80133
:10097400FC010D0A004F6E65207761792C207468A4
:10098400656E2072657665727365006661737420A6
:10099400536C6F77206578616D706C650050574DAE
:1009A4002066756C6C207468656E20736C6F7700BC
:00000001FF
