:100000000C94B2000C94DA000C94DA000C94DA0030
:100010000C94DA000C94DA000C94DA000C94DA00F8
:100020000C94DA000C94DA000C94DA000C94DA00E8
:100030000C94DA000C94DA000C94DA000C94DA00D8
:100040000C9440020C94DA000C94B0020C948A02D6
:100050000C94DA000C94DA000C94DA000C94DA00B8
:100060000C94DA000C94DA0000407A10F35A00A0E5
:10007000724E18090010A5D4E80000E87648170071
:1000800000E40B54020000CA9A3B000000E1F505B1
:10009000000080969800000040420F000000A086FB
:1000A00001000000102700000000E803000000002D
:1000B0006400000000000A000000000001000000D1
:1000C00000002C76D888DC674F0823DFC1DFAE59EB
:1000D000E1B1B796E5E3E453C63AE651997696E87E
:1000E000E6C28426EB898C9B62ED407C6FFCEFBC02
:1000F0009C9F40F2BAA56FA5F490055A2AF75C932D
:100100006B6CF9676DC11BFCE0E40D47FEF520E662
:10011000B500D0ED902E0300943577050080841E45
:10012000080000204E0A000000C80C333333330FA0
:10013000986E12831141EF8D2114893BE65516CF3D
:10014000FEE6DB18D1844B381BF77C1D901DA4BB49
:10015000E424203284725E228100C9F124ECA1E5FE
:100160003D27A90311241FBECFEFD8E0DEBFCDBFCE
:1001700011E0A0E0B1E0EEE3F2E102C005900D92E3
:10018000AC3CB107D9F722E0ACECB1E001C01D9264
:10019000A237B207E1F710E0C2EBD0E004C021972C
:1001A000FE010E945F06C13BD107C9F70E94E2022F
:1001B0000C941D090C940000CF92DF92EF92FF92F5
:1001C0000F931F93CF93DF936C017A018B01C0E0F3
:1001D000D0E0CE15DF0581F0D8016D918D01D601FB
:1001E000ED91FC910190F081E02DC6010995892BDC
:1001F00011F02196EECF7E01C701DF91CF911F91C3
:100200000F91FF90EF90DF90CF900895089580E0D8
:1002100090E00895FC01538D448D252F30E0842F0C
:1002200090E0821B930B541710F0CF96089501971E
:100230000895FC01918D828D981761F0828DDF0108
:10024000A80FB11D5D968C91928D9F5F9F73928FC9
:1002500090E008958FEF9FEF0895FC01918D828DBE
:10026000981731F0828DE80FF11D858D90E008958B
:100270008FEF9FEF0895FC01918D228D892F90E0E3
:10028000805C9F4F821B91098F739927089585ED9C
:1002900091E00E943B0121E0892B09F420E0822FAC
:1002A0000895FC01848DDF01A80FB11DA35ABF4F33
:1002B0002C91848D90E001968F739927848FA68965
:1002C000B7892C93A089B1898C91837080648C93B9
:1002D000938D848D981306C00288F389E02D808168
:1002E0008F7D80830895EF92FF920F931F93CF939A
:1002F000DF93EC0181E0888F9B8D8C8D981305C076
:10030000E889F989808185FD26C0F62E0B8D10E0E5
:100310000F5F1F4F0F731127E02E8C8DE8120CC05A
:100320000FB607FCFACFE889F989808185FFF5CF00
:10033000CE010E945101F1CF8B8DFE01E80FF11D1E
:10034000E35AFF4FF0829FB7F8940B8FEA89FB893D
:10035000808180620AC09FB7F894EE89FF8960832C
:10036000E889F98980818370806480839FBF81E000
:1003700090E0DF91CF911F910F91FF90EF90089542
:10038000CF93DF93EC01888D8823C9F0EA89FB893C
:10039000808185FD05C0A889B9898C9186FD0FC033
:1003A0000FB607FCF5CF808185FFF2CFA889B98908
:1003B0008C9185FFEDCFCE010E945101E7CFDF91F7
:1003C000CF91089580E090E0892B29F00E944701A9
:1003D00081110C9400000895CF93DF93009779F07A
:1003E000FC0101900020E9F73197AF01481B590B40
:1003F000BC0185ED91E00E94DC00EC0102C0C0E090
:10040000D0E042E050E062E171E085ED91E00E94D1
:10041000DC008C0F9D1FDF91CF9108950F931F93E8
:10042000CF93DF93CDB7DEB7C456D1090FB6F8949A
:10043000DEBF0FBECDBF7F936F939F938F9385E1F8
:1004400091E09F938F938E010F5F1F4F1F930F9328
:100450000E946A06C8010E94EC010FB6F894DEBF44
:100460000FBECDBFCC59DF4F0FB6F894DEBF0FBE25
:10047000CDBFDF91CF911F910F9108950E94650626
:100480001F920F920FB60F9211242F933F938F93C9
:100490009F93AF93BF938091D1019091D201A0918E
:1004A000D301B091D4013091D00123E0230F2D3737
:1004B00020F40196A11DB11D05C026E8230F029668
:1004C000A11DB11D2093D0018093D1019093D20141
:1004D000A093D301B093D4018091CC019091CD0130
:1004E000A091CE01B091CF010196A11DB11D8093C5
:1004F000CC019093CD01A093CE01B093CF01BF91D9
:10050000AF919F918F913F912F910F900FBE0F90C0
:100510001F9018951F920F920FB60F9211242F93D0
:100520003F934F935F936F937F938F939F93AF937B
:10053000BF93EF93FF9385ED91E00E945101FF91EE
:10054000EF91BF91AF919F918F917F916F915F914B
:100550004F913F912F910F900FBE0F901F901895C4
:100560001F920F920FB60F9211242F938F939F9388
:10057000EF93FF93E091E501F091E6018081E09136
:10058000EB01F091EC0182FD12C090818091EE01AF
:100590008F5F8F732091EF01821751F0E091EE0190
:1005A000F0E0EB52FE4F958F8093EE0101C0808109
:1005B000FF91EF919F918F912F910F900FBE0F9010
:1005C0001F901895CF93DF93CDB7DEB7CE56D109E4
:1005D0000FB6F894DEBF0FBECDBF789484B58260AD
:1005E00084BD84B5816084BD85B5826085BD85B5D7
:1005F000816085BD80916E00816080936E00109255
:1006000081008091810082608093810080918100CF
:100610008160809381008091800081608093800060
:100620008091B10084608093B1008091B0008160BE
:100630008093B00080917A00846080937A008091EA
:100640007A00826080937A0080917A008160809342
:100650007A0080917A00806880937A001092C100BD
:10066000E091E501F091E60182E08083E091E10113
:10067000F091E2011082E091E301F091E4018FEC4E
:1006800080831092ED01E091E901F091EA0186E0AA
:100690008083E091E701F091E801808180618083AF
:1006A000E091E701F091E801808188608083E0912A
:1006B000E701F091E801808180688083E091E701A3
:1006C000F091E80180818F7D80838BE191E00E9431
:1006D000EC0162E070E082E391E00E940E0264E0CF
:1006E00070E08EE491E00E940E0266E070E088E621
:1006F00091E00E940E0268E070E084E891E00E94C0
:100700000E027E0185E6E80EF11C870123E043E03E
:1007100060E070E088EA91E40E94D603FF92EF92D5
:1007200085EA91E09F938F9386EC91E09F938F935E
:10073000045611091F930F930E946A06C8010E9474
:10074000EC010FB6F894DEBF0FBECDBF0E94E201F0
:10075000FDCFE5EDF1E01382128288EE93E0A0E098
:10076000B0E084839583A683B78384E091E091838E
:10077000808385EC90E09587848784EC90E0978770
:10078000868780EC90E0918B808B81EC90E0938B5E
:10079000828B82EC90E0958B848B86EC90E0978B3B
:1007A000868B118E128E138E148E0895EF920F93F6
:1007B0001F93CF93DF93E80147FD02C034E001C0EF
:1007C00034E1042E000C550B57FF03C051954195A1
:1007D0005109E32E022F242FAE010E94F603CE0111
:1007E000DF91CF911F910F91EF900895A9E0B0E0B4
:1007F000ECEFF3E00C942E066A01122FB02E2BE3DF
:10080000201720F0FF24F394F00E02C02CE3F22E08
:100810000F2D27E0AE014F5F5F4F0E945005BC01D6
:100820004981842F8970813031F0E1FC06C0E0FEFF
:1008300006C090E205C09DE203C09BE201C090E0CB
:100840005E2D507143FF3CC0911102C083E001C096
:1008500084E0811718F4212F281B01C020E05111DA
:100860000BC0F601822F30E2882319F031938150BA
:10087000FBCFC20ED11C20E0992329F0D6019C9316
:10088000F60131966F01C6010396E2FE0AC03EE40E
:10089000D6013C9341E411964C93119712963C93E8
:1008A00006C03EE6F601308341E641833283FC0117
:1008B000322F40E2332309F442C041933150FACF42
:1008C00042FF44C0911102C083E001C084E081175F
:1008D00018F4212F281B01C020E051110BC0F60194
:1008E000822F30E2882319F031938150FBCFC20E62
:1008F000D11C20E0992329F0D6019C93F601319672
:100900006F01C6010396E2FE0BC039E4D6013C93A9
:100910003EE411963C93119736E412963C9307C03F
:1009200039E6F60130833EE6318336E63283FC0158
:10093000322F40E2332319F041933150FBCFFC01B9
:10094000E20FF11D10828EEF9FEFA6C021E030E094
:10095000911102C020E030E0161617061CF4FB01CE
:10096000319602C0E1E0F0E02E0F3F1FBB2021F0E6
:10097000EB2DF0E0319602C0E0E0F0E02E0F3F1FDB
:10098000E12FF0E02E173F071CF4121B212F01C0AE
:1009900020E08E2D887159F4F601822F30E28823F1
:1009A00019F031938150FBCFC20ED11C20E0992366
:1009B00029F0D6019C93F60131966F0151110BC0BD
:1009C000F601822F90E3882319F091938150FBCF99
:1009D000C20ED11C20E00F2D060F9A81342F3071EA
:1009E00044FF03C0913309F40150101624F4093078
:1009F00018F008E001C001E0AB0177FF02C040E061
:100A000050E0FB01E41BF50BA1E0B0E0AC0FBD1F13
:100A1000EA0FFB1F8EE2A82E4B01801A91080B2DC6
:100A200010E01195019511094F3FBFEF5B0721F4CD
:100A3000D601AC9211966D01641775072CF08416DF
:100A4000950614F4818101C080E34150510931962B
:100A5000D60111967D014017510724F0D6018C93E1
:100A60006701E2CF6417750739F4963320F49533A4
:100A700019F4311101C081E3F6018083F701822F5F
:100A800090E2882319F091938150FBCFF701E20F98
:100A9000F11D108280E090E02996ECE00C944A066B
:100AA000283008F027E03327DA01990F311D87FD40
:100AB000916000966105710539F432602E5F3D93B7
:100AC00030E32A95E1F708959F3F30F080387105B3
:100AD000610509F03C5F3C5F3D93913008F0806810
:100AE000911DDF93CF931F930F93FF92EF92192FD6
:100AF000987F9695E92F96959695E90FFF27EE53E7
:100B0000FF4F99273327EE24FF24A701E701059023
:100B10000894079428F4360FE71EF81E491F511D4C
:100B2000660F771F881F991F0694A1F705900794F9
:100B300028F4E70EF81E491F561FC11D770F881FA6
:100B4000991F661F0694A1F70590079428F4F80EE4
:100B5000491F561FC71FD11D880F991F661F771F7A
:100B60000694A1F70590079420F4490F561FC71F5C
:100B7000D81F990F661F771F881F0694A9F78491C5
:100B80001095177041F0D695C79557954795F794EE
:100B9000E7941A95C1F7E8E6F0E06894159015918E
:100BA00035916591959105907FE27395E118F10A71
:100BB000430B560BC90BD009C0F7E10CF11E431FC4
:100BC000561FC91FD01D7EF4703311F48A95E6CFED
:100BD000E894015030F0080F0AF40027021708F4D7
:100BE000202F2395022F7A3328F079E37D932A95DD
:100BF000E9F710C07D932A9589F606949795679535
:100C0000379517951794E118F10A430B560BC90B4A
:100C1000D00998F023957E9173957A3308F070E3AC
:100C20007C932013B8F77E9170617D9330F08395AB
:100C300071E37D9370E32A95E1F71124EF90FF9023
:100C40000F911F91CF91DF91992787FD909508957E
:100C50002F923F924F925F926F927F928F929F92CC
:100C6000AF92BF92CF92DF92EF92FF920F931F93BA
:100C7000CF93DF93CDB7DEB7CA1BDB0B0FB6F8946B
:100C8000DEBF0FBECDBF09942A88398848885F84AB
:100C90006E847D848C849B84AA84B984C884DF801C
:100CA000EE80FD800C811B81AA81B981CE0FD11D00
:100CB0000FB6F894DEBF0FBECDBFED010895EE0F65
:100CC000FF1F0590F491E02D099481E090E0F894E5
:100CD0000C941D09AEE0B0E0E0E7F6E00C943606B7
:100CE0000D891E8986E08C831A8309838FEF9FE725
:100CF0009E838D83AE01475E5F4F6F89788DCE01F5
:100D000001960E948C06EF81F885E00FF11F10829A
:100D10002E96E4E00C945206ABE0B0E0E2E9F6E097
:100D20000C9428066C017B018A01FC011782168253
:100D3000838181FFCCC1CE0101963C01F6019381F4
:100D4000F70193FD859193FF81917F01882309F439
:100D5000BAC1853239F493FD859193FF81917F016A
:100D6000853229F4B60190E00E948308E7CF912CE8
:100D7000212C312CFFE1F315D8F08B3279F038F4C7
:100D8000803279F08332A1F4232D20611DC08D3291
:100D900061F0803369F4232D216016C0832D8260B9
:100DA000382EE32DE4603E2E2AC0F32DF8601DC0DE
:100DB00037FC2DC020ED280F2A3040F08E32B9F4D8
:100DC00036FC81C1232D2064322E19C036FE06C0A8
:100DD0008AE0989E200D1124922E11C0EAE02E9EEA
:100DE000200D1124222EF32DF0623F2E08C08C36E8
:100DF00021F4832D8068382E02C0883641F4F70133
:100E000093FD859193FF81917F018111B3CF982F3D
:100E10009F7D9554933028F40C5F1F4F9FE3998377
:100E20000DC0833631F0833771F0833509F059C036
:100E300021C0F801808189830E5F1F4F882483942D
:100E4000912C530113C02801F2E04F0E511CF80100
:100E5000A080B18036FE03C0692D70E002C06FEF44
:100E60007FEFC5010E9478084C018201F32DFF77C6
:100E70003F2E16C0280122E0420E511CF801A0802E
:100E8000B18036FE03C0692D70E002C06FEF7FEFC6
:100E9000C5010E946D084C01F32DF0683F2E8201C0
:100EA00033FC1BC0822D90E088169906B0F4B60181
:100EB00080E290E00E9483082A94F4CFF50137FC89
:100EC000859137FE81915F01B60190E00E94830811
:100ED00021102A9421E0821A91088114910471F75B
:100EE000E8C0843611F0893641F5F80137FE07C0B5
:100EF00060817181828193810C5F1F4F08C0608186
:100F00007181072E000C880B990B0E5F1F4FF32D7C
:100F1000FF763F2E97FF09C090958095709561955B
:100F20007F4F8F4F9F4FF0683F2E2AE030E0A301A4
:100F30000E94BF08882E861845C0853731F4232DBE
:100F40002F7EB22E2AE030E025C0932D997FB92E56
:100F50008F36C1F018F4883579F0B5C0803719F0B4
:100F6000883721F0B0C0E92FE061BE2EB4FE0DC07D
:100F7000FB2DF460BF2E09C034FE0AC0292F266065
:100F8000B22E06C028E030E005C020E130E002C00B
:100F900020E132E0F801B7FE07C0608171818281F3
:100FA00093810C5F1F4F06C06081718180E090E0EB
:100FB0000E5F1F4FA3010E94BF08882E8618FB2DCD
:100FC000FF773F2E36FE0DC0232D2E7FA22E8914D3
:100FD00058F434FE0BC032FC09C0832D8E7EA82E3F
:100FE00005C0B82CA32C03C0B82C01C0B92CA4FE9A
:100FF0000FC0FE01E80DF11D8081803321F49A2D90
:10100000997EA92E09C0A2FE06C0B394B39404C071
:101010008A2D867809F0B394A3FC11C0A0FE06C007
:10102000B21488F4280C922C9B180EC0B21460F4F1
:10103000B60180E290E00E948308B394F7CFB21427
:1010400018F42B1802C0982C212CA4FE10C0B60155
:1010500080E390E00E948308A2FE17C0A1FC03C0B9
:1010600088E790E002C088E590E0B6010CC08A2DC8
:10107000867859F0A1FE02C08BE201C080E2A7FC95
:101080008DE2B60190E00E948308891438F4B6011D
:1010900080E390E00E9483089A94F7CF8A94F3014A
:1010A000E80DF11D8081B60190E00E948308811057
:1010B000F5CF222009F442CEB60180E290E00E94F2
:1010C00083082A94F6CFF6018681978102C08FEFBC
:1010D0009FEF2B96E2E10C944406FC0105906150D1
:1010E00070400110D8F7809590958E0F9F1F08953E
:1010F000FC016150704001900110D8F780959095E7
:101100008E0F9F1F08950F931F93CF93DF93FB01C3
:10111000238121FD03C08FEF9FEF2CC022FF16C05B
:1011200046815781248135814217530744F4A081B9
:10113000B1819D012F5F3F4F318320838C932681A6
:1011400037812F5F3F4F3783268314C08B01EC011B
:10115000FB010084F185E02D0995892BE1F6D8018A
:1011600016968D919C911797019617969C938E9346
:101170001697CE01DF91CF911F910F910895FA013B
:10118000AA27283051F1203181F1E8946F936E7FC6
:101190006E5F7F4F8F4F9F4FAF4FB1E03ED0B4E0B7
:1011A0003CD0670F781F891F9A1FA11D680F791FF8
:1011B0008A1F911DA11D6A0F711D811D911DA11D09
:1011C00020D009F468943F912AE0269F1124301919
:1011D000305D3193DEF6CF010895462F4770405DB4
:1011E0004193B3E00FD0C9F7F6CF462F4F70405D63
:1011F0004A3318F0495D31FD4052419302D0A9F7BE
:10120000EACFB4E0A6959795879577956795BA95B7
:10121000C9F700976105710508959B01AC010A2E7D
:1012200006945795479537952795BA95C9F7620F54
:0E123000731F841F951FA01D0895F894FFCF13
:10123E00000000007301DC000A01C0013B0119012E
:10124E002D010D0A00257320256400546573746901
:10125E006E672066756E6374696F6E2063616C6C69
:10126E00730043616C6C20627920696E7420566144
:10127E006C756520286578702032293A200043610C
:10128E006C6C20627920506F696E746572202865CF
:10129E0078702034293A200043616C6C20627920EA
:1012AE005265666572656E636520286578702036B6
:1012BE00293A200043616C6C206279206465666176
:1012CE00756C742056616C756520202865787020C9
:1012DE0038293A200043616C6C20627920666C6F6D
:1012EE0061742056616C75653A20202865787020EF
:0C12FE003231293A2000257320257300AE
:00000001FF
