:100000000C9435000C945D000C945D000C945D0024
:100010000C945D000C945D000C945D000C945D00EC
:100020000C945D000C945D000C945D000C945D00DC
:100030000C945D000C945D000C945D000C945D00CC
:100040000C9479010C945D000C94E9010C94C301AB
:100050000C945D000C945D000C945D000C945D00AC
:100060000C945D000C945D00DD0211241FBECFEFE7
:10007000D8E0DEBFCDBF11E0A0E0B1E0E2E0FCE0FF
:1000800002C005900D92AE31B107D9F721E0AEE183
:10009000B1E001C01D92A43CB207E1F710E0C5E356
:1000A000D0E004C02197FE010E940A03C433D107A7
:1000B000C9F70E941B020C94FF050C940000CF921C
:1000C000DF92EF92FF920F931F93CF93DF936C0118
:1000D0007A018B01C0E0D0E0CE15DF0581F0D801B8
:1000E0006D918D01D601ED91FC910190F081E02D93
:1000F000C6010995892B11F02196EECF7E01C7012B
:10010000DF91CF911F910F91FF90EF90DF90CF90F3
:100110000895089580E090E00895FC01538D448D8A
:10012000252F30E0842F90E0821B930B541710F0A2
:10013000CF96089501970895FC01918D828D9817AF
:1001400061F0828DDF01A80FB11D5D968C91928DBB
:100150009F5F9F73928F90E008958FEF9FEF0895B8
:10016000FC01918D828D981731F0828DE80FF11D81
:10017000858D90E008958FEF9FEF0895FC01918D9C
:10018000228D892F90E0805C9F4F821B91098F7395
:100190009927089587E291E00E94BE0021E0892B13
:1001A00009F420E0822F0895FC01848DDF01A80F5F
:1001B000B11DA35ABF4F2C91848D90E001968F738F
:1001C0009927848FA689B7892C93A089B1898C91AE
:1001D000837080648C93938D848D981306C00288FD
:1001E000F389E02D80818F7D80830895EF92FF92C7
:1001F0000F931F93CF93DF93EC0181E0888F9B8D4A
:100200008C8D981305C0E889F989808185FD26C009
:10021000F62E0B8D10E00F5F1F4F0F731127E02E8E
:100220008C8DE8120CC00FB607FCFACFE889F9896B
:10023000808185FFF5CFCE010E94D400F1CF8B8D58
:10024000FE01E80FF11DE35AFF4FF0829FB7F894CB
:100250000B8FEA89FB89808180620AC09FB7F8947E
:10026000EE89FF896083E889F989808183708064E1
:1002700080839FBF81E090E0DF91CF911F910F912C
:10028000FF90EF900895CF93DF93EC01888D882342
:10029000C9F0EA89FB89808185FD05C0A889B989F3
:1002A0008C9186FD0FC00FB607FCF5CF808185FFCE
:1002B000F2CFA889B9898C9185FFEDCFCE010E943C
:1002C000D400E7CFDF91CF91089580E090E0892BB3
:1002D00029F00E94CA0081110C940000089542E0A8
:1002E00050E062E171E087E291E00C945F000E94CF
:1002F00010031F920F920FB60F9211242F933F936A
:100300008F939F93AF93BF9380912301909124018A
:10031000A0912501B09126013091220123E0230F05
:100320002D3720F40196A11DB11D05C026E8230F2D
:100330000296A11DB11D2093220180932301909369
:100340002401A0932501B093260180911E01909174
:100350001F01A0912001B09121010196A11DB11DA5
:1003600080931E0190931F01A0932001B09321015F
:10037000BF91AF919F918F913F912F910F900FBEA1
:100380000F901F9018951F920F920FB60F92112485
:100390002F933F934F935F936F937F938F939F938D
:1003A000AF93BF93EF93FF9387E291E00E94D40055
:1003B000FF91EF91BF91AF919F918F917F916F913D
:1003C0005F914F913F912F910F900FBE0F901F9013
:1003D00018951F920F920FB60F9211242F938F939F
:1003E0009F93EF93FF93E0913701F0913801808163
:1003F000E0913D01F0913E0182FD12C0908180911B
:1004000040018F5F8F7320914101821751F0E0917D
:100410004001F0E0E95DFE4F958F8093400101C0FF
:100420008081FF91EF919F918F912F910F900FBE3F
:100430000F901F901895CF93DF93CDB7DEB76E97CF
:100440000FB6F894DEBF0FBECDBF789484B582603E
:1004500084BD84B5816084BD85B5826085BD85B568
:10046000816085BD80916E00816080936E001092E6
:100470008100809181008260809381008091810061
:1004800081608093810080918000816080938000F2
:100490008091B10084608093B1008091B000816050
:1004A0008093B00080917A00846080937A0080917C
:1004B0007A00826080937A0080917A0081608093D4
:1004C0007A0080917A00806880937A001092C1004F
:1004D000E0913701F091380182E08083E0913301AF
:1004E000F09134011082E0913501F09136018FECEA
:1004F000808310923F01E0913B01F0913C0186E046
:100500008083E0913901F0913A018081806180839C
:10051000E0913901F0913A01808188608083E09117
:100520003901F0913A01808180688083E09139013E
:10053000F0913A0180818F7D80830E946F01CE010E
:1005400001967C01FC0180E090E0819391930196FB
:100550008A309105D1F78E010B5E1F4F85E1C82EC1
:1005600081E0D82EF70180819181F2E0EF0EF11C3D
:100570009F938F93DF92CF921F930F930E94150347
:10058000F80101900020E9F73197AF01401B510BB2
:10059000B80187E291E00E945F000E946F010F9016
:1005A0000F900F900F900F900F90E016F106D1F67C
:1005B0000E946F010E946501FDCFE7E2F1E0138226
:1005C000128288EE93E0A0E0B0E084839583A68356
:1005D000B78384E091E09183808385EC90E09587F8
:1005E000848784EC90E09787868780EC90E0918BFD
:1005F000808B81EC90E0938B828B82EC90E0958BEA
:10060000848B86EC90E0978B868B118E128E138EE6
:10061000148E0895EE0FFF1F0590F491E02D0994BC
:1006200081E090E0F8940C94FF05AEE0B0E0EBE1DF
:10063000F3E00C94D6050D891E8986E08C831A831D
:1006400009838FEF9FE79E838D83AE01475E5F4FE7
:100650006F89788DCE0101960E943703EF81F8856E
:10066000E00FF11F10822E96E4E00C94F205ABE04F
:10067000B0E0EDE3F3E00C94C8056C017B018A0166
:10068000FC0117821682838181FFCCC1CE010196C5
:100690003C01F6019381F70193FD859193FF8191D0
:1006A0007F01882309F4BAC1853239F493FD85911D
:1006B00093FF81917F01853229F4B60190E00E9479
:1006C0002E05E7CF912C212C312CFFE1F315D8F02A
:1006D0008B3279F038F4803279F08332A1F4232D13
:1006E00020611DC08D3261F0803369F4232D2160BB
:1006F00016C0832D8260382EE32DE4603E2E2AC082
:10070000F32DF8601DC037FC2DC020ED280F2A30D6
:1007100040F08E32B9F436FC81C1232D2064322E94
:1007200019C036FE06C08AE0989E200D1124922E34
:1007300011C0EAE02E9E200D1124222EF32DF0622E
:100740003F2E08C08C3621F4832D8068382E02C0DD
:10075000883641F4F70193FD859193FF81917F01E4
:100760008111B3CF982F9F7D9554933028F40C5F5F
:100770001F4F9FE399830DC0833631F0833771F0AB
:10078000833509F059C021C0F801808189830E5F4B
:100790001F4F88248394912C530113C02801F2E049
:1007A0004F0E511CF801A080B18036FE03C0692DA8
:1007B00070E002C06FEF7FEFC5010E9423054C017E
:1007C0008201F32DFF773F2E16C0280122E0420E52
:1007D000511CF801A080B18036FE03C0692D70E085
:1007E00002C06FEF7FEFC5010E9418054C01F32D89
:1007F000F0683F2E820133FC1BC0822D90E08816EA
:100800009906B0F4B60180E290E00E942E052A9489
:10081000F4CFF50137FC859137FE81915F01B60178
:1008200090E00E942E0521102A9421E0821A91085E
:100830008114910471F7E8C0843611F0893641F5CE
:10084000F80137FE07C060817181828193810C5F5E
:100850001F4F08C060817181072E000C880B990B17
:100860000E5F1F4FF32DFF763F2E97FF09C0909527
:100870008095709561957F4F8F4F9F4FF0683F2E09
:100880002AE030E0A3010E946A05882E861845C040
:10089000853731F4232D2F7EB22E2AE030E025C09B
:1008A000932D997FB92E8F36C1F018F4883579F0E1
:1008B000B5C0803719F0883721F0B0C0E92FE0616A
:1008C000BE2EB4FE0DC0FB2DF460BF2E09C034FE59
:1008D0000AC0292F2660B22E06C028E030E005C0ED
:1008E00020E130E002C020E132E0F801B7FE07C0AD
:1008F00060817181828193810C5F1F4F06C060818E
:10090000718180E090E00E5F1F4FA3010E946A0595
:10091000882E8618FB2DFF773F2E36FE0DC0232D27
:100920002E7FA22E891458F434FE0BC032FC09C06D
:10093000832D8E7EA82E05C0B82CA32C03C0B82C06
:1009400001C0B92CA4FE0FC0FE01E80DF11D80818D
:10095000803321F49A2D997EA92E09C0A2FE06C0EB
:10096000B394B39404C08A2D867809F0B394A3FCA1
:1009700011C0A0FE06C0B21488F4280C922C9B185B
:100980000EC0B21460F4B60180E290E00E942E0521
:10099000B394F7CFB21418F42B1802C0982C212C62
:1009A000A4FE10C0B60180E390E00E942E05A2FED6
:1009B00017C0A1FC03C088E790E002C088E590E082
:1009C000B6010CC08A2D867859F0A1FE02C08BE2D8
:1009D00001C080E2A7FC8DE2B60190E00E942E05E6
:1009E000891438F4B60180E390E00E942E059A94B1
:1009F000F7CF8A94F301E80DF11D8081B60190E0F4
:100A00000E942E058110F5CF222009F442CEB601B6
:100A100080E290E00E942E052A94F6CFF6018681AE
:100A2000978102C08FEF9FEF2B96E2E10C94E405D3
:100A3000FC010590615070400110D8F780959095A9
:100A40008E0F9F1F0895FC016150704001900110AE
:100A5000D8F7809590958E0F9F1F08950F931F9341
:100A6000CF93DF93FB01238121FD03C08FEF9FEF25
:100A70002CC022FF16C04681578124813581421740
:100A8000530744F4A081B1819D012F5F3F4F318313
:100A900020838C93268137812F5F3F4F37832683B6
:100AA00014C08B01EC01FB010084F185E02D099558
:100AB000892BE1F6D80116968D919C911797019696
:100AC00017969C938E931697CE01DF91CF911F912D
:100AD0000F910895FA01AA27283051F1203181F1B0
:100AE000E8946F936E7F6E5F7F4F8F4F9F4FAF4F36
:100AF000B1E03ED0B4E03CD0670F781F891F9A1F49
:100B0000A11D680F791F8A1F911DA11D6A0F711DFC
:100B1000811D911DA11D20D009F468943F912AE008
:100B2000269F11243019305D3193DEF6CF010895F0
:100B3000462F4770405D4193B3E00FD0C9F7F6CF21
:100B4000462F4F70405D4A3318F0495D31FD4052E9
:100B5000419302D0A9F7EACFB4E0A695979587957F
:100B600077956795BA95C9F700976105710508955E
:100B70009B01AC010A2E069457954795379527950A
:100B8000BA95C9F7620F731F841F951FA01D0895A2
:100B90002F923F924F925F926F927F928F929F928D
:100BA000AF92BF92CF92DF92EF92FF920F931F937B
:100BB000CF93DF93CDB7DEB7CA1BDB0B0FB6F8942C
:100BC000DEBF0FBECDBF09942A88398848885F846C
:100BD0006E847D848C849B84AA84B984C884DF80DD
:100BE000EE80FD800C811B81AA81B981CE0FD11DC1
:100BF0000FB6F894DEBF0FBECDBFED010895F89497
:020C0000FFCF24
:100C020000000000F6005F008D004301BE009C0062
:0E0C1200B0000D0A00636E74203D20256400C2
:00000001FF
