:100000000C9435000C945D000C945D000C945D0024
:100010000C945D000C945D000C945D000C945D00EC
:100020000C945D000C945D000C945D000C945D00DC
:100030000C945D000C945D000C945D000C945D00CC
:100040000C94CA010C945D000C943A020C941402B6
:100050000C945D000C945D000C945D000C945D00AC
:100060000C945D000C945D006C0211241FBECFEF58
:10007000D8E0DEBFCDBF11E0A0E0B1E0E4EDF6E0F6
:1000800002C005900D92A631B107D9F721E0A6E193
:10009000B1E001C01D92AE3BB207E1F710E0C5E34D
:1000A000D0E004C02197FE010E945D03C433D10754
:1000B000C9F70E949F020C9468030C940000CF9231
:1000C000DF92EF92FF920F931F93CF93DF936C0118
:1000D0007A018B01C0E0D0E0CE15DF0581F0D801B8
:1000E0006D918D01D601ED91FC910190F081E02D93
:1000F000C6010995892B11F02196EECF7E01C7012B
:10010000DF91CF911F910F91FF90EF90DF90CF90F3
:100110000895089580E090E00895FC01538D448D8A
:10012000252F30E0842F90E0821B930B541710F0A2
:10013000CF96089501970895FC01918D828D9817AF
:1001400061F0828DDF01A80FB11D5D968C91928DBB
:100150009F5F9F73928F90E008958FEF9FEF0895B8
:10016000FC01918D828D981731F0828DE80FF11D81
:10017000858D90E008958FEF9FEF0895FC01918D9C
:10018000228D892F90E0805C9F4F821B91098F7395
:10019000992708958FE191E00E94BE0021E0892B0C
:1001A00009F420E0822F0895FC01848DDF01A80F5F
:1001B000B11DA35ABF4F2C91848D90E001968F738F
:1001C0009927848FA689B7892C93A089B1898C91AE
:1001D000837080648C93938D848D981306C00288FD
:1001E000F389E02D80818F7D80830895EF92FF92C7
:1001F0000F931F93CF93DF93EC0181E0888F9B8D4A
:100200008C8D981305C0E889F989808185FD26C009
:10021000F62E0B8D10E00F5F1F4F0F731127E02E8E
:100220008C8DE8120CC00FB607FCFACFE889F9896B
:10023000808185FFF5CFCE010E94D400F1CF8B8D58
:10024000FE01E80FF11DE35AFF4FF0829FB7F894CB
:100250000B8FEA89FB89808180620AC09FB7F8947E
:10026000EE89FF896083E889F989808183708064E1
:1002700080839FBF81E090E0DF91CF911F910F912C
:10028000FF90EF900895CF93DF93EC01888D882342
:10029000C9F0EA89FB89808185FD05C0A889B989F3
:1002A0008C9186FD0FC00FB607FCF5CF808185FFCE
:1002B000F2CFA889B9898C9185FFEDCFCE010E943C
:1002C000D400E7CFDF91CF91089580E090E0892BB3
:1002D00029F00E94CA0081110C94000008958F92A9
:1002E0009F92AF92BF920F931F93CF93DF93CDB79F
:1002F000DEB7A1970FB6F894DEBF0FBECDBF19A22F
:10030000423008F44AE08E010F5D1F4F842E912C7D
:10031000A12CB12CA50194010E943B03E62FB90149
:10032000CA0101501109EA3014F4E05D01C0E95C32
:10033000D801EC93232B242B252B61F701151105F4
:1003400071F0F80101900020E9F73197AF01401BEF
:10035000510BB8018FE191E00E945F0002C080E084
:1003600090E0A1960FB6F894DEBF0FBECDBFDF912F
:10037000CF911F910F91BF90AF909F908F90089554
:1003800042E050E062E171E08FE191E00C945F00A7
:100390000E9463031F920F920FB60F9211242F93A6
:1003A0003F938F939F93AF93BF9380911B01909145
:1003B0001C01A0911D01B0911E0130911A0123E092
:1003C000230F2D3720F40196A11DB11D05C026E88D
:1003D000230F0296A11DB11D20931A0180931B01CA
:1003E00090931C01A0931D01B0931E0180911601F2
:1003F00090911701A0911801B09119010196A11DCA
:10040000B11D8093160190931701A0931801B0932A
:100410001901BF91AF919F918F913F912F910F90B3
:100420000FBE0F901F9018951F920F920FB60F924C
:1004300011242F933F934F935F936F937F938F93E9
:100440009F93AF93BF93EF93FF938FE191E00E944F
:10045000D400FF91EF91BF91AF919F918F917F91C8
:100460006F915F914F913F912F910F900FBE0F9021
:100470001F9018951F920F920FB60F9211242F9371
:100480008F939F93EF93FF93E0912F01F0913001B1
:100490008081E0913501F091360182FD12C090819A
:1004A000809138018F5F8F7320913901821751F04D
:1004B000E0913801F0E0E15EFE4F958F80933801C6
:1004C00001C08081FF91EF919F918F912F910F90AB
:1004D0000FBE0F901F901895EFE1F1E0138212828A
:1004E00088EE93E0A0E0B0E084839583A683B78391
:1004F00084E091E09183808385EC90E09587848708
:1005000084EC90E09787868780EC90E0918B808BDD
:1005100081EC90E0938B828B82EC90E0958B848BC6
:1005200086EC90E0978B868B118E128E138E148E34
:1005300083E090E09093BD018093BC01089578948E
:1005400084B5826084BD84B5816084BD85B58260D8
:1005500085BD85B5816085BD80916E008160809389
:100560006E001092810080918100826080938100F2
:100570008091810081608093810080918000816002
:10058000809380008091B10084608093B10080915D
:10059000B00081608093B00080917A008460809385
:1005A0007A0080917A00826080937A0080917A004C
:1005B000816080937A0080917A00806880937A00CD
:1005C0001092C100E0912F01F091300182E0808310
:1005D000E0912B01F0912C011082E0912D01F0911E
:1005E0002E018FEC808310923701E0913301F0915E
:1005F000340186E08083E0913101F0913201808105
:1006000080618083E0913101F091320180818860C6
:100610008083E0913101F091320180818068808394
:10062000E0913101F091320180818F7D8083C09013
:10063000BC01D090BD010D2C000CEE08FF08F7FEA8
:100640000EC06DE28FE191E00E94F60066277727E9
:10065000CB016C197D098E099F094AE003C04AE06D
:10066000C701B6010E946F010E94C0010E94C00133
:100670000E946501FDCFA1E21A2EAA1BBB1BFD0142
:100680000DC0AA1FBB1FEE1FFF1FA217B307E40771
:10069000F50720F0A21BB30BE40BF50B661F771FC9
:1006A000881F991F1A9469F76095709580959095A9
:1006B0009B01AC01BD01CF010895EE0FFF1F059016
:1006C000F491E02D099481E090E0F8940C94680393
:0406D000F894FFCFCC
:1006D40000000000F6005F008D004301BE009C0096
:0606E400B0000D0A000049
:00000001FF
