:100000000C945D000C9485000C9485000C94850084
:100010000C9485000C9485000C9485000C9485004C
:100020000C9485000C9485000C9485000C9485003C
:100030000C9485000C9485000C9485000C9485002C
:100040000C9491020C9485000C9401030C94DB0237
:100050000C9485000C9485000C9485000C9485000C
:100060000C9485000C94850000000008000201003B
:100070000003040700000000000000000000000072
:10008000250028002B0000000000240027002A0083
:10009000040404040404040402020202020203032E
:1000A0000303030301020408102040800102040836
:1000B0001020010204081020330311241FBECFEFCB
:1000C000D8E0DEBFCDBF11E0A0E0B1E0EEE0F9E0A6
:1000D00002C005900D92A633B107D9F721E0A6E33F
:1000E000B1E001C01D92A03FB207E1F710E0CDE5FD
:1000F000D0E004C02197FE010E947A04CC35D107DC
:10010000C9F70E9487030C9485040C940000FC013D
:10011000428353836483758386819781A085B185EB
:10012000480F591F6A1F7B1F428753876487758753
:100130000895CF92DF92EF92FF920F931F93CF9388
:10014000DF936C017A018B01C0E0D0E0CE15DF05B2
:1001500081F0D8016D918D01D601ED91FC91019056
:10016000F081E02DC6010995892B11F02196EECF83
:100170007E01C701DF91CF911F910F91FF90EF900A
:10018000DF90CF900895089580E090E00895FC01FD
:10019000538D448D252F30E0842F90E0821B930BEC
:1001A000541710F0CF96089501970895FC01918D92
:1001B000828D981761F0828DDF01A80FB11D5D96C9
:1001C0008C91928D9F5F9F73928F90E008958FEF37
:1001D0009FEF0895FC01918D828D981731F0828DEB
:1001E000E80FF11D858D90E008958FEF9FEF089542
:1001F000FC01918D228D892F90E0805C9F4F821BA6
:1002000091098F73992708958CE391E00E94F8007B
:1002100021E0892B09F420E0822F0895FC01848DD0
:10022000DF01A80FB11DA35ABF4F2C91848D90E020
:1002300001968F739927848FA689B7892C93A089FB
:10024000B1898C91837080648C93938D848D981385
:1002500006C00288F389E02D80818F7D8083089518
:10026000EF92FF920F931F93CF93DF93EC0181E006
:10027000888F9B8D8C8D981305C0E889F9898081C2
:1002800085FD26C0F62E0B8D10E00F5F1F4F0F73FC
:100290001127E02E8C8DE8120CC00FB607FCFACFA8
:1002A000E889F989808185FFF5CFCE010E940E0192
:1002B000F1CF8B8DFE01E80FF11DE35AFF4FF08265
:1002C0009FB7F8940B8FEA89FB89808180620AC00E
:1002D0009FB7F894EE89FF896083E889F989808166
:1002E0008370806480839FBF81E090E0DF91CF9135
:1002F0001F910F91FF90EF900895CF93DF93EC0142
:10030000888D8823C9F0EA89FB89808185FD05C035
:10031000A889B9898C9186FD0FC00FB607FCF5CF6F
:10032000808185FFF2CFA889B9898C9185FFEDCFB7
:10033000CE010E940E01E7CFDF91CF91089580E0BA
:1003400090E0892B29F00E94040181110C94000097
:100350000895CF93DF93EC01EE85FF85309709F088
:1003600009952FB7F8948091D9019091DA01A09165
:10037000DB01B091DC012FBF8E839F83A887B987F3
:100380004A815B816C817D81840F951FA61FB71FF9
:100390008A879B87AC87BD87DF91CF9108950F93A4
:1003A0001F93FC010285138524853585401B510B65
:1003B000620B730B77FD02C0808901C080E01F9142
:1003C0000F910895009769F0FC0101900020E9F772
:1003D0003197AF01481B590BBC018CE391E00C94A1
:1003E000990080E090E008950E948004CF92DF920F
:1003F000EF92FF920F931F93CF93DF93CDB7DEB7AA
:10040000A1970FB6F894DEBF0FBECDBF2091360185
:1004100081E0282720933601E5E7F0E08491E1EBC5
:10042000F0E09491EDE9F0E0E491EE2309F43CC0B2
:10043000882339F1833091F038F48130A9F082308B
:1004400001F584B58F7D12C0873091F08830A1F01E
:100450008430B9F4809180008F7D03C0809180004A
:100460008F77809380000DC084B58F7784BD09C0DD
:100470008091B0008F7703C08091B0008F7D809312
:10048000B000F0E0EE0FFF1FE458FF4FA591B491CC
:100490003FB7F894211104C08C919095982302C025
:1004A000EC919E2B9C933FBF8CE191E00E94E20176
:1004B0008FB7F8942091D9013091DA014091DB0196
:1004C0005091DC018FBF19A28E010F5D1F4F8AE092
:1004D000C82ED12CE12CF12CCA01B901A70196013B
:1004E0000E945804605DF80162938F012115310567
:1004F0004105510589F7CF010E94E20183E391E0B4
:100500000E94E201A1960FB6F894DEBF0FBECDBFE8
:10051000DF91CF911F910F91FF90EF90DF90CF90DF
:1005200008951F920F920FB60F9211242F933F93AD
:100530008F939F93AF93BF938091D9019091DA01EC
:10054000A091DB01B091DC0130913B0123E0230F4E
:100550002D3720F40196A11DB11D05C026E8230FFB
:100560000296A11DB11D20933B018093D901909368
:10057000DA01A093DB01B093DC0180913701909107
:100580003801A0913901B0913A010196A11DB11D28
:100590008093370190933801A0933901B0933A01C9
:1005A000BF91AF919F918F913F912F910F900FBE6F
:1005B0000F901F9018951F920F920FB60F92112453
:1005C0002F933F934F935F936F937F938F939F935B
:1005D000AF93BF93EF93FF938CE391E00E940E01E2
:1005E000FF91EF91BF91AF919F918F917F916F910B
:1005F0005F914F913F912F910F900FBE0F901F90E1
:1006000018951F920F920FB60F9211242F938F936C
:100610009F93EF93FF93E0914C01F0914D01808106
:10062000E0915201F091530182FD12C090818091BE
:1006300055018F5F8F7320915601821751F0E09121
:100640005501F0E0E45CFE4F958F8093550101C0A9
:100650008081FF91EF919F918F912F910F900FBE0D
:100660000F901F901895ECE3F1E01382128288EE50
:1006700093E0A0E0B0E084839583A683B78384E011
:1006800091E09183808385EC90E09587848784EC6A
:1006900090E09787868780EC90E0918B808B81EC4F
:1006A00090E0938B828B82EC90E0958B848B86EC30
:1006B00090E0978B868B118E128E138E148EEDED3B
:1006C000F1E086E191E09183808381E0808B178661
:1006D000168612861386148615862FB7F894809195
:1006E000D9019091DA01A091DB01B091DC012FBF1B
:1006F00086839783A087B187F28BE18B1282138266
:100700001482158282879387A487B5870895789489
:1007100084B5826084BD84B5816084BD85B5826006
:1007200085BD85B5816085BD80916E0081608093B7
:100730006E00109281008091810082608093810020
:100740008091810081608093810080918000816030
:10075000809380008091B10084608093B10080918B
:10076000B00081608093B00080917A0084608093B3
:100770007A0080917A00826080937A0080917A007A
:10078000816080937A0080917A00806880937A00FB
:100790001092C100E0914C01F0914D0182E0808304
:1007A000E0914801F09149011082E0914A01F091F5
:1007B0004B018FEC808310925401E0915001F09135
:1007C000510186E08083E0914E01F0914F018081DC
:1007D00080618083E0914E01F0914F0180818860BB
:1007E0008083E0914E01F0914F0180818068808389
:1007F000E0914E01F0914F0180818F7D8083E1EB8C
:10080000F0E02491EDE9F0E08491882399F090E004
:10081000880F991FFC01EA57FF4FA591B491FC0185
:10082000E458FF4F859194918FB7F894EC91E22BA7
:10083000EC938FBF86EF91E09093EC018093EB01F6
:1008400084EF91E0A0E0B0E08093DF019093E001BD
:10085000A093E101B093E2018091E3019091E40162
:10086000A091E501B091E6018C509E4FAF4FBF4F74
:100870008093E7019093E801A093E901B093EA0126
:100880008FB7F8944091D9015091DA016091DB0162
:100890007091DC018FBF8DED91E00E94CF01882324
:1008A00021F08DED91E00E94A9010E949F01E8CF07
:1008B000A1E21A2EAA1BBB1BFD010DC0AA1FBB1F64
:1008C000EE1FFF1FA217B307E407F50720F0A21BD6
:1008D000B30BE40BF50B661F771F881F991F1A9443
:1008E00069F760957095809590959B01AC01BD016D
:1008F000CF010895EE0FFF1F0590F491E02D0994AC
:0E09000081E090E0F8940C948504F894FFCF09
:10090E000000000030019900C7007D01F800D600FC
:10091E00EA00000000008700CF01A901434F4F4CB1
:10092E00212049276D2072756E6E696E67206F6E7D
:06093E003A20000D0A0042
:00000001FF
