:100000000C945E000C9486000C9486000C94860080
:100010000C9486000C9486000C9486000C94CB04FF
:100020000C9486000C9486000C9486000C94860038
:100030000C9486000C9486000C9486000C94860028
:100040000C9481040C9486000C94AE050C948805E5
:100050000C9486000C9486000C9486000C94860008
:100060000C9486000C948600000000080002010039
:100070000003040700000000000000000200000070
:1000800000250028002B0000000000240027002A83
:100090000004040404040404040202020202020331
:1000A000030303030301020408102040800102043B
:1000B000081020010204081020008F0611241FBE22
:1000C000CFEFD8E0DEBFCDBF11E0A0E0B1E0E8E4C3
:1000D000FEE002C005900D92A432B107D9F721E0ED
:1000E000A4E2B1E001C01D92AB3DB207E1F710E020
:1000F000CEE5D0E004C02197FE010E940807CD356F
:10010000D107C9F70E94E0050C9422070C94000067
:10011000EDEAF0E02491E9E9F0E08491882399F098
:1001200090E0880F991FFC01E957FF4FA591B4910A
:10013000FC01E358FF4F859194918FB7F894EC91AF
:10014000E22BEC938FBF08954F925F926F927F9254
:100150008F929F92AF92BF92CF92DF92EF92FF92D7
:100160000F931F93CF93DF9300D000D01F92CDB792
:10017000DEB78C012A013B0180910001883021F01B
:100180008F3F09F037C205C0ECE7F0E024912D83E2
:1001900070C088E080930001ECE7F0E084918D83EB
:1001A0008F3F09F427C2813009F441C038F1823011
:1001B00009F05FC01092B0001092B1008091B000C1
:1001C00082608093B0008091B10081608093B10023
:1001D000E9E9F0E0E491F0E0EE0FFF1FE358FF4F94
:1001E000859194919093CC018093CB01EDEAF0E05E
:1001F000E491E093CA0122E02D83F9C114BC15BC3F
:1002000084B5826084BD85B5816085BDE9E9F0E093
:10021000E491F0E0EE0FFF1FE358FF4F85919491BA
:10022000EDEAF0E0E491E093CE011D82E0C110928E
:10023000800010928100809181008860809381000D
:1002400080918100816080938100E9E9F0E0E49190
:10025000F0E0EE0FFF1FE358FF4F85919491EDEA18
:10026000F0E0E491E093CD010E94880091E09D834D
:1002700088C08D8187FDBEC10E9488008D818D7FE1
:1002800009F07FC04801A12CB12C60E072E18AE73F
:1002900090E0A50194010E94DE0629833A834B83F6
:1002A0005C8369017A0191E0C91AD108E108F1087B
:1002B0002FEFC216D104E104F10409F008F44EC096
:1002C00060E472E48FE090E0A50194010E94DE06F4
:1002D00069017A0181E0C81AD108E108F1089D811D
:1002E000923009F52FEFC216D104E104F10409F0B0
:1002F00008F444C160E970ED83E090E0A501940149
:100300000E94DE0669017A0181E0C81AD108E1087D
:10031000F1089FEFC916D104E104F10411F008F0CF
:10032000BAC083E027C02FEFC216D104E104F10464
:10033000B9F0B0F068E478EE81E090E0A5019401B6
:100340000E94DE0669017A0181E0C81AD108E1083D
:10035000F1089D81992309F413C1DCC081E001C03B
:1003600082E09D81911106C095B5987F892B85BD4E
:1003700044C085E09091B100987F892B8093B100B3
:100380003CC04801A12CB12C60E072E18AE790E00A
:10039000A50194010E94DE0669017A0181E0C81A74
:1003A000D108E108F108C114D10491E0E906F10493
:1003B00088F068E478EE81E090E0A50194010E9465
:1003C000DE0669017A0181E0C81AD108E108F10866
:1003D00083E001C081E09D81913079F490918100AA
:1003E000987F892B8093810041145104610471042A
:1003F00049F42FEF3FEFA9012CC0411451046104CF
:10040000710471F0D801AA0FBB1FA30192010E94D1
:10041000FD0628EE33E040E050E00E94BC0603C039
:100420002FEF3FEFA9018D81813099F0823019F1D2
:100430008111E0C0C7BC2093D7013093D80140930D
:10044000D9015093DA0180916E00826080936E0032
:10045000D1C0D0928900C09288002093D3013093FC
:10046000D4014093D5015093D60180916F008260F2
:1004700080936F00BFC0C092B3002093CF01309330
:10048000D0014093D1015093D201809170008260DD
:1004900080937000AFC068E478EE81E090E0A50141
:1004A00094010E94DE0669017A0191E0C91AD1081F
:1004B000E108F1082FEFC216D104E104F10441F183
:1004C00038F164E274EF80E090E0A50194010E94AD
:1004D000DE0669017A0181E0C81AD108E108F10855
:1004E0009FEFC916D104E104F10409F008F441CFEB
:1004F00062E17AE780E090E0A50194010E94DE06C7
:1005000069017A0181E0C81AD108E108F10819C02F
:1005100084E030CF2FEFC216D104E104F10409F0DA
:1005200008F463C062E17AE780E090E0A5019401FD
:100530000E94DE0669017A0191E0C91AD108E1083A
:10054000F1088FEFC816D104E104F104A9F0A0F07E
:1005500089819A81AB81BC812AE0B595A795979551
:1005600087952A95D1F76C017D0121E0C21AD10847
:10057000E108F10887E0FECE86E0FCCE82E0FACE0C
:100580008FEFC816D104E104F10469F160F162E172
:100590007AE780E090E0A50194010E94DE066901FF
:1005A0007A0191E0C91AD108E108F1082FEFC216CB
:1005B000D104E104F104A9F0A0F089819A81AB8112
:1005C000BC813AE0B595A795979587953A95D1F76F
:1005D0006C017D0121E0C21AD108E108F10885E033
:1005E000C3CE84E0C1CE83E0BFCE84E0BACE0E9409
:1005F000880048CE0F900F900F900F900F90DF91D2
:10060000CF911F910F91FF90EF90DF90CF90BF900F
:10061000AF909F908F907F906F905F904F900895D4
:100620003FB7F8948091C6019091C701A091C8018D
:10063000B091C90126B5A89B05C02F3F19F00196BE
:10064000A11DB11D3FBFBA2FA92F982F8827820F58
:10065000911DA11DB11DBC01CD0142E0660F771FA8
:10066000881F991F4A95D1F708958F929F92AF9254
:10067000BF92CF92DF92EF92FF926B017C010E94BA
:1006800010034B015C01C114D104E104F104F1F049
:100690000E941003DC01CB0188199909AA09BB0942
:1006A000883E9340A105B10570F321E0C21AD1083C
:1006B000E108F10888EE880E83E0981EA11CB11CA9
:1006C000C114D104E104F10419F7DDCFFF90EF90DC
:1006D000DF90CF90BF90AF909F908F900895CF9272
:1006E000DF92EF92FF920F931F93CF93DF936C01F2
:1006F0007A018B01C0E0D0E0CE15DF0581F0D80192
:100700006D918D01D601ED91FC910190F081E02D6C
:10071000C6010995892B11F02196EECF7E01C70104
:10072000DF91CF911F910F91FF90EF90DF90CF90CD
:100730000895089580E090E00895FC01538D448D64
:10074000252F30E0842F90E0821B930B541710F07C
:10075000CF96089501970895FC01918D828D981789
:1007600061F0828DDF01A80FB11D5D968C91928D95
:100770009F5F9F73928F90E008958FEF9FEF089592
:10078000FC01918D828D981731F0828DE80FF11D5B
:10079000858D90E008958FEF9FEF0895FC01918D76
:1007A000228D892F90E0805C9F4F821B91098F736F
:1007B0009927089584E291E00E94CE0321E0892BDD
:1007C00009F420E0822F0895FC01848DDF01A80F39
:1007D000B11DA35ABF4F2C91848D90E001968F7369
:1007E0009927848FA689B7892C93A089B1898C9188
:1007F000837080648C93938D848D981306C00288D7
:10080000F389E02D80818F7D80830895EF92FF92A0
:100810000F931F93CF93DF93EC0181E0888F9B8D23
:100820008C8D981305C0E889F989808185FD26C0E3
:10083000F62E0B8D10E00F5F1F4F0F731127E02E68
:100840008C8DE8120CC00FB607FCFACFE889F98945
:10085000808185FFF5CFCE010E94E403F1CF8B8D1F
:10086000FE01E80FF11DE35AFF4FF0829FB7F894A5
:100870000B8FEA89FB89808180620AC09FB7F89458
:10088000EE89FF896083E889F989808183708064BB
:1008900080839FBF81E090E0DF91CF911F910F9106
:1008A000FF90EF900895CF93DF93EC01888D88231C
:1008B000C9F0EA89FB89808185FD05C0A889B989CD
:1008C0008C9186FD0FC00FB607FCF5CF808185FFA8
:1008D000F2CFA889B9898C9185FFEDCFCE010E9416
:1008E000E403E7CFDF91CF91089580E090E0892B7A
:1008F00029F00E94DA0381110C94000008950E94EF
:100900001D071F920F920FB60F9211242F933F9342
:100910008F939F93AF93BF938091C2019091C30136
:10092000A091C401B091C5013091C10123E0230F12
:100930002D3720F40196A11DB11D05C026E8230F17
:100940000296A11DB11D2093C1018093C201909315
:10095000C301A093C401B093C5018091C6019091D9
:10096000C701A091C801B091C9010196A11DB11D97
:100970008093C6019093C701A093C801B093C901A9
:10098000BF91AF919F918F913F912F910F900FBE8B
:100990000F901F9018951F920F920FB60F9211246F
:1009A0002F933F938F939F93AF93BF93EF93FF93B7
:1009B0008091CF019091D001A091D101B091D2014D
:1009C000892B8A2B8B2B59F19091CA01E091CB0195
:1009D000F091CC018081892780838091CF01909113
:1009E000D001A091D101B091D201181619061A06B2
:1009F0001B060CF080C08091CF019091D001A09196
:100A0000D101B091D2010197A109B1098093CF0121
:100A10009093D001A093D101B093D2016CC080918A
:100A20000001ECE7F0E0E4919FEF90930001E130EA
:100A3000B9F098F0E230C9F4909170009D7F9093E6
:100A4000700091E09093B0009091B100987F946015
:100A50009093B1001092B30008C010926E0005C0D0
:100A600090916F009D7F90936F0090E0FC01E8599A
:100A7000FF4F2491FC01EB55FF4F3491FC01EF56E1
:100A8000FF4FE491EE23B9F1222339F1233091F0A5
:100A900038F42130A9F0223001F584B58F7D12C0E1
:100AA000273091F02830A1F02430B9F480918000F3
:100AB0008F7D03C0809180008F77809380000DC070
:100AC00084B58F7784BD09C08091B0008F7703C053
:100AD0008091B0008F7D8093B000F0E0EE0FFF1F9B
:100AE000E358FF4FA591B4919FB7F8948C9130953E
:100AF00038233C939FBFFF91EF91BF91AF919F919E
:100B00008F913F912F910F900FBE0F901F901895CE
:100B10001F920F920FB60F9211242F933F934F9372
:100B20005F936F937F938F939F93AF93BF93EF9355
:100B3000FF9384E291E00E94E403FF91EF91BF9163
:100B4000AF919F918F917F916F915F914F913F9165
:100B50002F910F900FBE0F901F9018951F920F921C
:100B60000FB60F9211242F938F939F93EF93FF93C0
:100B7000E0913401F09135018081E0913A01F091EA
:100B80003B0182FD12C0908180913D018F5F8F7388
:100B900020913E01821751F0E0913D01F0E0EC5DC3
:100BA000FE4F958F80933D0101C08081FF91EF91B1
:100BB0009F918F912F910F900FBE0F901F901895BE
:100BC000789484B5826084BD84B5816084BD85B528
:100BD000826085BD85B5816085BD80916E00816034
:100BE00080936E00109281008091810082608093DA
:100BF00081008091810081608093810080918000DC
:100C00008160809380008091B10084608093B10006
:100C10008091B00081608093B00080917A00846000
:100C200080937A0080917A00826080937A0080912C
:100C30007A00816080937A0080917A008068809346
:100C40007A001092C100E0913401F091350182E008
:100C50008083E0913001F09131011082E091320106
:100C6000F09133018FEC808310923C01E0913801C8
:100C7000F091390186E08083E0913601F0913701EF
:100C8000808180618083E0913601F091370180811D
:100C900088608083E0913601F0913701808180681F
:100CA0008083E0913601F091370180818F7D8083D0
:100CB0000E94880083E1E82E81E0F82EC3E2D1E0B3
:100CC00003E111E044E650E060E070E0F80181915A
:100CD00091918F010E94A40068EC70E080E090E0A8
:100CE0000E943503C017D10769F744E650E060E081
:100CF00070E09A918A910E94A40068EC70E080E014
:100D000090E00E943503EC16FD0679F760ED77E080
:100D100080E090E00E9435030E947504CFCFE4E2AA
:100D2000F1E01382128288EE93E0A0E0B0E08483C9
:100D30009583A683B78385E091E09183808385ECDA
:100D400090E09587848784EC90E09787868780EC95
:100D500090E0918B808B81EC90E0938B828B82EC86
:100D600090E0958B848B86EC90E0978B868B118E30
:100D7000128E138E148E0895A1E21A2EAA1BBB1B8D
:100D8000FD010DC0AA1FBB1FEE1FFF1FA217B30757
:100D9000E407F50720F0A21BB30BE40BF50B661F6D
:100DA000771F881F991F1A9469F760957095809531
:100DB00090959B01AC01BD01CF010895052E97FBD5
:100DC0001EF400940E94F50657FD07D00E94BC0651
:100DD00007FC03D04EF40C94F506509540953095E1
:100DE00021953F4F4F4F5F4F089590958095709597
:100DF00061957F4F8F4F9F4F08950E940E07A59FCB
:100E0000900DB49F900DA49F800D911D1124089505
:100E1000EE0FFF1F0590F491E02D0994A29FB00101
:100E2000B39FC001A39F700D811D1124911DB29F1E
:100E3000700D811D1124911D089581E090E0F894BA
:080E40000C942207F894FFCF87
:100E4800FF0000000006046F039D035304CE03ACAB
:100E580003C0030B024B029302BA0210037003DCB7
:040E68000317040068
:00000001FF
