:100000000C945C000C946E000C946E000C946E00CA
:100010000C946E000C946E000C946E000C946E00A8
:100020000C946E000C946E000C946E000C946E0098
:100030000C946E000C946E000C946E000C946E0088
:100040000C9401010C946E000C946E000C946E00E4
:100050000C946E000C946E000C946E000C946E0068
:100060000C946E000C946E00000000080002010069
:100070000003040700000000000000000000000072
:10008000250028002B0000000000240027002A0083
:10009000040404040404040402020202020203032E
:1000A0000303030301020408102040800102040836
:1000B000102001020408102011241FBECFEFD8E049
:1000C000DEBFCDBF21E0A0E0B1E001C01D92A930AC
:1000D000B207E1F70E944B010C94F0010C94000070
:1000E00090E0FC01EC55FF4F2491FC01E057FF4FDD
:1000F0008491882399F090E0880F991FFC01EA57BA
:10010000FF4FA591B491FC01E458FF4F8591949164
:100110008FB7F894EC91E22BEC938FBF089590E0A9
:10012000FC01E859FF4F2491FC01EC55FF4F34913D
:10013000FC01E057FF4FE491EE2309F43CC0222379
:1001400039F1233091F038F42130A9F0223001F553
:1001500084B58F7D12C0273091F02830A1F0243073
:10016000B9F4809180008F7D03C0809180008F77EB
:10017000809380000DC084B58F7784BD09C08091C5
:10018000B0008F7703C08091B0008F7D8093B00066
:10019000F0E0EE0FFF1FE458FF4FA591B4919FB719
:1001A000F894611104C08C913095382302C0EC9111
:1001B0003E2B3C939FBF08953FB7F8948091050173
:1001C00090910601A0910701B091080126B5A89B66
:1001D00005C02F3F19F00196A11DB11D3FBFBA2FD9
:1001E000A92F982F8827820F911DA11DB11DBC0139
:1001F000CD0142E0660F771F881F991F4A95D1F7FE
:1002000008951F920F920FB60F9211242F933F93D0
:100210008F939F93AF93BF938091010190910201BF
:10022000A0910301B09104013091000123E0230F5C
:100230002D3720F40196A11DB11D05C026E8230F1E
:100240000296A11DB11D209300018093010190939E
:100250000201A0930301B0930401809105019091E4
:100260000601A0910701B09108010196A11DB11DE1
:100270008093050190930601A0930701B0930801B4
:10028000BF91AF919F918F913F912F910F900FBE92
:100290000F901F901895789484B5826084BD84B5C2
:1002A000816084BD85B5826085BD85B5816085BD71
:1002B00080916E00816080936E0010928100809129
:1002C00081008260809381008091810081608093B1
:1002D0008100809180008160809380008091B100D6
:1002E00084608093B1008091B00081608093B00001
:1002F00080917A00846080937A0080917A00826095
:1003000080937A0080917A00816080937A00809156
:100310007A00806880937A001092C10088E00E9481
:1003200070008AE00E94700086E00E94700090E0F9
:10033000A92E90E0B92EC0E0D0E060E088E00E94F5
:100340008F0007E010E0BE01002E02C07595679592
:100350000A94E2F7617086E00E948F0061E08AE013
:100360000E948F0060E08AE00E948F000150110916
:1003700050F761E088E00E948F000E94DC002B01B2
:100380003C0188ECC82ED12CE12CF12C0E94DC0021
:10039000DC01CB0184199509A609B709883E934071
:1003A000A105B10598F381E0C81AD108E108F10868
:1003B00028EE420E23E0521E611C711CC114D104B0
:1003C000E104F10419F72196C11581E0D80709F07D
:1003D000B4CFA114B10409F4AECF0E940000ABCF9A
:0403E000F894FFCFBF
:00000001FF
