:100000000C94C1000C94E9000C94E9000C94E900F4
:100010000C94E9000C94E9000C94E9000C94E900BC
:100020000C94E9000C94E9000C94E9000C94E900AC
:100030000C94E9000C94E9000C94E9000C94E9009C
:100040000C94A8020C94E9000C9418030C94F2028E
:100050000C94E9000C94E9000C94E9000C94E9007C
:100060000C94E9000C94E90005A84CCDB2D44EB92B
:100070003836A9020C50B9918688083CA6AAAA2A4B
:10008000BE000000803F00407A10F35A00A0724E7C
:1000900018090010A5D4E80000E87648170000E42D
:1000A0000B54020000CA9A3B000000E1F505000075
:1000B00080969800000040420F000000A0860100DA
:1000C0000000102700000000E803000000006400AA
:1000D000000000000A000000000001000000000015
:1000E0002C76D888DC674F0823DFC1DFAE59E1B139
:1000F000B796E5E3E453C63AE651997696E8E6C248
:100100008426EB898C9B62ED407C6FFCEFBC9C9F4E
:1001100040F2BAA56FA5F490055A2AF75C936B6C70
:10012000F9676DC11BFCE0E40D47FEF520E6B50064
:10013000D0ED902E0300943577050080841E0800D2
:1001400000204E0A000000C80C333333330F986E82
:1001500012831141EF8D2114893BE65516CFFEE63F
:10016000DB18D1844B381BF77C1D901DA4BBE42405
:10017000203284725E228100C9F124ECA1E53D2782
:100180004A0311241FBECFEFD8E0DEBFCDBF11E080
:10019000A0E0B1E0E4EDF9E102C005900D92A438D1
:1001A000B107D9F722E0A4E8B1E001C01D92AC325A
:1001B000B207E1F710E0C1ECD0E004C02197FE01E6
:1001C0000E942A0AC03CD107C9F70E947D030C9403
:1001D000E80C0C940000CF92DF92EF92FF920F9305
:1001E0001F93CF93DF936C017A018B01C0E0D0E0C5
:1001F000CE15DF0581F0D8016D918D01D601ED910D
:10020000FC910190F081E02DC6010995892B11F038
:100210002196EECF7E01C701DF91CF911F910F9103
:10022000FF90EF90DF90CF900895089580E090E0E8
:100230000895FC01538D448D252F30E0842F90E0EC
:10024000821B930B541710F0CF96089501970895D1
:10025000FC01918D828D981761F0828DDF01A80FCE
:10026000B11D5D968C91928D9F5F9F73928F90E0F0
:1002700008958FEF9FEF0895FC01918D828D98175F
:1002800031F0828DE80FF11D858D90E008958FEF9C
:100290009FEF0895FC01918D228D892F90E0805C65
:1002A0009F4F821B91098F73992708958DE891E0E4
:1002B0000E944A0121E0892B09F420E0822F089551
:1002C000FC01848DDF01A80FB11DA35ABF4F2C91F3
:1002D000848D90E001968F739927848FA689B789C2
:1002E0002C93A089B1898C91837080648C93938DB9
:1002F000848D981306C00288F389E02D80818F7D5C
:1003000080830895EF92FF920F931F93CF93DF9313
:10031000EC0181E0888F9B8D8C8D981305C0E88956
:10032000F989808185FD26C0F62E0B8D10E00F5FC8
:100330001F4F0F731127E02E8C8DE8120CC00FB6E3
:1003400007FCFACFE889F989808185FFF5CFCE01D6
:100350000E946001F1CF8B8DFE01E80FF11DE35A81
:10036000FF4FF0829FB7F8940B8FEA89FB89808159
:1003700080620AC09FB7F894EE89FF896083E8899C
:10038000F98980818370806480839FBF81E090E0E1
:10039000DF91CF911F910F91FF90EF900895CF9330
:1003A000DF93EC01888D8823C9F0EA89FB8980817D
:1003B00085FD05C0A889B9898C9186FD0FC00FB64F
:1003C00007FCF5CF808185FFF2CFA889B9898C9190
:1003D00085FFEDCFCE010E946001E7CFDF91CF9185
:1003E000089580E090E0892B29F00E945601811148
:1003F0000C9400000895009769F0FC010190002022
:10040000E9F73197AF01481B590BBC018DE891E02A
:100410000C94EB0080E090E0089588E291E00C9469
:10042000FB01CF93DF93682F8DE891E00E9482015A
:10043000EC010E940D028C0F9D1FDF91CF9108955A
:10044000CF93DF930E94FB01EC010E940D028C0F01
:100450009D1FDF91CF9108958F929F92AF92BF928F
:10046000CF92DF92EF92FF920F931F93CF93DF9380
:10047000CDB7DEB7A1970FB6F894DEBF0FBECDBFE4
:100480006C01990FEE08FF08F7FE2BC06DE28DE8B6
:1004900091E00E9482018C0122273327A9012C19A7
:1004A0003D094E095F0919A2CE0181967C019AE0AF
:1004B000892E912CA12CB12CCA01B901A50194015E
:1004C0000E94080A605DF70162937F0121153105E2
:1004D0004105510589F7CF010E94FB01080F191F43
:1004E0001EC0A701960119A28E010F5D1F4F8AE061
:1004F000C82ED12CE12CF12CCA01B901A70196011B
:100500000E94080A605DF80162938F012115310590
:100510004105510589F7CF010E94FB018C010E9422
:100520000D02800F911FA1960FB6F894DEBF0FBE8B
:10053000CDBFDF91CF911F910F91FF90EF90DF9092
:10054000CF90BF90AF909F908F9008950E94300AF7
:100550001F920F920FB60F9211242F933F938F93F8
:100560009F93AF93BF938091890190918A01A0914D
:100570008B01B0918C013091880123E0230F2D373E
:1005800020F40196A11DB11D05C026E8230F029697
:10059000A11DB11D209388018093890190938A0148
:1005A000A0938B01B0938C0180918401909185017F
:1005B000A0918601B09187010196A11DB11D809384
:1005C000840190938501A0938601B0938701BF9128
:1005D000AF919F918F913F912F910F900FBE0F90F0
:1005E0001F9018951F920F920FB60F9211242F9300
:1005F0003F934F935F936F937F938F939F93AF93AB
:10060000BF93EF93FF938DE891E00E946001FF910B
:10061000EF91BF91AF919F918F917F916F915F917A
:100620004F913F912F910F900FBE0F901F901895F3
:100630001F920F920FB60F9211242F938F939F93B7
:10064000EF93FF93E0919D01F0919E018081E091F5
:10065000A301F091A40182FD12C090818091A601B6
:100660008F5F8F732091A701821751F0E091A6014F
:10067000F0E0E357FE4F958F8093A60101C0808183
:10068000FF91EF919F918F912F910F900FBE0F903F
:100690001F901895EDE8F1E01382128288EE93E046
:1006A000A0E0B0E084839583A683B7838AE191E0DC
:1006B0009183808385EC90E09587848784EC90E03B
:1006C0009787868780EC90E0918B808B81EC90E01F
:1006D000938B828B82EC90E0958B848B86EC90E000
:1006E000978B868B118E128E138E148E83E090E082
:1006F00090932B0280932A020895CF93DF93CDB776
:10070000DEB7C158D1090FB6F894DEBF0FBECDBF1A
:10071000789484B5826084BD84B5816084BD85B5DC
:10072000826085BD85B5816085BD80916E008160E8
:1007300080936E001092810080918100826080938E
:100740008100809181008160809381008091800090
:100750008160809380008091B10084608093B100BB
:100760008091B00081608093B00080917A008460B5
:1007700080937A0080917A00826080937A008091E1
:100780007A00816080937A0080917A0080688093FB
:100790007A001092C100E0919D01F0919E0182E0EB
:1007A0008083E0919901F0919A011082E0919B0180
:1007B000F0919C018FEC80831092A501E091A10142
:1007C000F091A20186E08083E0919F01F091A00169
:1007D000808180618083E0919F01F091A001808100
:1007E00088608083E0919F01F091A0018081806802
:1007F0008083E0919F01F091A00180818F7D8083B3
:100800008BE291E00E9420020E940D028E010F5B9C
:100810001F4FF80180E090E08193919301968A3018
:100820009105D1F7680124E1C20ED11C7801D701EE
:100830008D919D917D010E942C02CE14DF04B9F7A9
:100840000E940D0285E0E2E0F1E0DE01A758BF4F13
:1008500001900D928A95E1F786E0E8E7F1E0DE018C
:10086000A259BF4F01900D928A95E1F785E0EEE71E
:10087000F1E0DE01AC58BF4F01900D928A95E1F78F
:1008800083E0E7E0F1E0DE01AB5ABF4F01900D924B
:100890008A95E1F7E5E5F0E0EC0FFD1F33968CE07B
:1008A000DF011D928A95E9F7B1967F015F01F5E0BE
:1008B000AF0EB11CD7018D917D010E941102EA1487
:1008C000FB04C1F7FE01E259FF4F7F015F01F6E033
:1008D000AF0EB11CEA14FB0431F0D7018D917D01FC
:1008E0000E941102F7CFFE01EC58FF4F7F015F011C
:1008F000F5E0AF0EB11CEA14FB0431F0D7018D9185
:100900007D010E941102F7CFFE01EB5AFF4F7F01DC
:100910005F01FFE0AF0EB11CAE14BF0431F0D70190
:100920008D917D010E941102F7CF0E940D0227E3F5
:10093000622E21E0722E3DE3A32E31E0B32EFE01A4
:1009400031967F01D8018C9111969C910E5F1F4FBB
:100950007F926F929F938F93BF92AF92FF92EF928D
:100960000E94350AC7010E9420020FB6F894DEBF2C
:100970000FBECDBF0C151D0529F70E940D02A12C3D
:10098000BB24B394412C512C32016E01F4E6CF0EFE
:10099000D11C91E5292E91E0392E23EC35EF48EC5E
:1009A0005CE3C301B2010E9418082B013C010E94C4
:1009B0007809C258DF4F688379838A839B83CE5737
:1009C000D040860123E045E0C301B2010E948E05BC
:1009D00020E030E040E053E4C258DF4F6881798185
:1009E0008A819B81CE57D0400E940B0920E030E0E5
:1009F00040E053E40E9418080E9484087F936F939C
:100A0000DF92CF923F922F92FF92EF920E94350A8F
:100A1000C7010E94200221E0A21AB1080FB6F89483
:100A2000DEBF0FBECDBF09F0B8CF0E940D0284E635
:100A300091E00E9420020E940D02F70180E090E008
:100A40008193919301968A309105D1F75E0195E1EA
:100A5000A90EB11C0FE611E0D7018C9111969C9163
:100A6000B2E0EB0EF11C9F938F931F930F93DF92D5
:100A7000CF920E94350AC6010E9420020F900F906B
:100A80000F900F900F900F90AE14BF0429F70E94A3
:100A90000D0281E090E00E942C020E940D028091E4
:100AA0002A0290912B020E942C020E940D0280E0EB
:100AB00090E00E942C0282E090E00E942C020E94B2
:100AC0000D02809100019091010102969093010125
:100AD000809300010E942C020E940D0282E291E0AC
:100AE0000E942C0282E291E00E942C0282E291E0BC
:100AF0000E942C020E940D0281E090E00E942C02D4
:100B000082E090E00E942C020E940D020FB6F89441
:100B1000DEBF0FBECDBF0E94F101FDCFEF920F935C
:100B20001F93CF93DF93E80147FD02C034E001C07B
:100B300034E1042E000C550B57FF03C0519541952D
:100B40005109E32E022F242FAE010E94AE05CE01E3
:100B5000DF91CF911F910F91EF900895A9E0B0E040
:100B6000E4EBF5E00C94E6076A01122FB02E2BE3BC
:100B7000201720F0FF24F394F00E02C02CE3F22E95
:100B80000F2D27E0AE014F5F5F4F0E940807BC01A9
:100B90004981842F8970813031F0E1FC06C0E0FE8C
:100BA00006C090E205C09DE203C09BE201C090E058
:100BB0005E2D507143FF3CC0911102C083E001C023
:100BC00084E0811718F4212F281B01C020E0511167
:100BD0000BC0F601822F30E2882319F03193815047
:100BE000FBCFC20ED11C20E0992329F0D6019C93A3
:100BF000F60131966F01C6010396E2FE0AC03EE49B
:100C0000D6013C9341E411964C93119712963C9374
:100C100006C03EE6F601308341E641833283FC01A3
:100C2000322F40E2332309F442C041933150FACFCE
:100C300042FF44C0911102C083E001C084E08117EB
:100C400018F4212F281B01C020E051110BC0F60120
:100C5000822F30E2882319F031938150FBCFC20EEE
:100C6000D11C20E0992329F0D6019C93F6013196FE
:100C70006F01C6010396E2FE0BC039E4D6013C9336
:100C80003EE411963C93119736E412963C9307C0CC
:100C900039E6F60130833EE6318336E63283FC01E5
:100CA000322F40E2332319F041933150FBCFFC0146
:100CB000E20FF11D10828EEF9FEFA6C021E030E021
:100CC000911102C020E030E0161617061CF4FB015B
:100CD000319602C0E1E0F0E02E0F3F1FBB2021F073
:100CE000EB2DF0E0319602C0E0E0F0E02E0F3F1F68
:100CF000E12FF0E02E173F071CF4121B212F01C03B
:100D000020E08E2D887159F4F601822F30E288237D
:100D100019F031938150FBCFC20ED11C20E09923F2
:100D200029F0D6019C93F60131966F0151110BC049
:100D3000F601822F90E3882319F091938150FBCF25
:100D4000C20ED11C20E00F2D060F9A81342F307176
:100D500044FF03C0913309F40150101624F4093004
:100D600018F008E001C001E0AB0177FF02C040E0ED
:100D700050E0FB01E41BF50BA1E0B0E0AC0FBD1FA0
:100D8000EA0FFB1F8EE2A82E4B01801A91080B2D53
:100D900010E01195019511094F3FBFEF5B0721F45A
:100DA000D601AC9211966D01641775072CF084166C
:100DB000950614F4818101C080E3415051093196B8
:100DC000D60111967D014017510724F0D6018C936E
:100DD0006701E2CF6417750739F4963320F4953331
:100DE00019F4311101C081E3F6018083F701822FEC
:100DF00090E2882319F091938150FBCFF701E20F25
:100E0000F11D108280E090E02996ECE00C9402083D
:100E1000283008F027E03327DA01990F311D87FDCC
:100E2000916000966105710539F432602E5F3D9343
:100E300030E32A95E1F708959F3F30F0803871053F
:100E4000610509F03C5F3C5F3D93913008F080689C
:100E5000911DDF93CF931F930F93FF92EF92192F62
:100E6000987F9695E92F96959695E90FFF27E05282
:100E7000FF4F99273327EE24FF24A701E7010590B0
:100E80000894079428F4360FE71EF81E491F511DD9
:100E9000660F771F881F991F0694A1F70590079486
:100EA00028F4E70EF81E491F561FC11D770F881F33
:100EB000991F661F0694A1F70590079428F4F80E71
:100EC000491F561FC71FD11D880F991F661F771F07
:100ED0000694A1F70590079420F4490F561FC71FE9
:100EE000D81F990F661F771F881F0694A9F7849152
:100EF0001095177041F0D695C79557954795F7947B
:100F0000E7941A95C1F7E6E8F0E06894159015911A
:100F100035916591959105907FE27395E118F10AFD
:100F2000430B560BC90BD009C0F7E10CF11E431F50
:100F3000561FC91FD01D7EF4703311F48A95E6CF79
:100F4000E894015030F0080F0AF40027021708F463
:100F5000202F2395022F7A3328F079E37D932A9569
:100F6000E9F710C07D932A9589F6069497956795C1
:100F7000379517951794E118F10A430B560BC90BD7
:100F8000D00998F023957E9173957A3308F070E339
:100F90007C932013B8F77E9170617D9330F0839538
:100FA00071E37D9370E32A95E1F71124EF90FF90B0
:100FB0000F911F91CF91DF91992787FD909508950B
:100FC0002F923F924F925F926F927F928F929F9259
:100FD000AF92BF92CF92DF92EF92FF920F931F9347
:100FE000CF93DF93CDB7DEB7CA1BDB0B0FB6F894F8
:100FF000DEBF0FBECDBF09942A88398848885F8438
:101000006E847D848C849B84AA84B984C884DF80A8
:10101000EE80FD800C811B81AA81B981CE0FD11D8C
:101020000FB6F894DEBF0FBECDBFED010895505846
:10103000BB27AA270E942F080C94D1080E94C3083E
:1010400038F00E94CA0820F039F49F3F19F426F4C2
:101050000C94C0080EF4E095E7FB0C94BA08E92F55
:101060000E94E20858F3BA176207730784079507CE
:1010700020F079F4A6F50C9404090EF4E0950B2EFB
:10108000BA2FA02D0B01B90190010C01CA01A001DA
:101090001124FF27591B99F0593F50F4503E68F135
:1010A0001A16F040A22F232F342F4427585FF3CF76
:1010B000469537952795A795F0405395C9F77EF447
:1010C0001F16BA0B620B730B840BBAF09150A1F090
:1010D000FF0FBB1F661F771F881FC2F70EC0BA0F16
:1010E000621F731F841F48F4879577956795B7959E
:1010F000F7959E3F08F0B0CF9395880F08F0992799
:10110000EE0F9795879508950E948B086894B1110A
:101110000C94050908950E94EA0888F09F5798F0FA
:10112000B92F9927B751B0F0E1F0660F771F881FEC
:10113000991F1AF0BA95C9F714C0B13091F00E9406
:101140000409B1E008950C940409672F782F8827CB
:10115000B85F39F0B93FCCF3869577956795B3952D
:10116000D9F73EF490958095709561957F4F8F4F9C
:101170009F4F089597F99F6780E870E060E00895B9
:101180009FEF80EC089500240A941616170618069F
:101190000906089500240A9412161306140605067B
:1011A0000895092E0394000C11F4882352F0BB0F0C
:1011B00040F4BF2B11F460FF04C06F5F7F4F8F4F6F
:1011C0009F4F089557FD9058440F551F59F05F3FAA
:1011D00071F04795880F97FB991F61F09F3F79F059
:1011E00087950895121613061406551FF2CF4695DB
:1011F000F1DF08C0161617061806991FF1CF86955D
:101200007105610508940895E894BB276627772740
:10121000CB0197F908950E941E090C94D1080E94F1
:10122000C30838F00E94CA0820F0952311F00C94EE
:10123000BA080C94C00811240C9405090E94E20815
:1012400070F3959FC1F3950F50E0551F629FF00119
:10125000729FBB27F00DB11D639FAA27F00DB11D32
:10126000AA1F649F6627B00DA11D661F829F2227BB
:10127000B00DA11D621F739FB00DA11D621F839F42
:10128000A00D611D221F749F3327A00D611D231F18
:10129000849F600D211D822F762F6A2F11249F5766
:1012A00050409AF0F1F088234AF0EE0FFF1FBB1F69
:1012B000661F771F881F91505040A9F79E3F510528
:1012C00080F00C94BA080C9405095F3FE4F3983E53
:1012D000D4F3869577956795B795F795E7959F5FD2
:1012E000C1F7FE2B880F911D9695879597F9089564
:1012F0009F930E9482090F9007FCEE5F0C94AB094C
:101300000C94C0080E94EA08D8F3E894E0E0BB27F8
:101310009F57F0F02AED3FE049EC06C0EE0FBB0FFF
:10132000661F771F881F28F0B23A62077307840789
:1013300028F0B25A620B730B840BE3959A9572F7FF
:10134000803830F49A95BB0F661F771F881FD2F73D
:1013500090480C94C109EF93E0FF07C0A2EA2AED80
:101360003FE049EC5FEB0E942F080E94D1080F90EC
:10137000039401FC9058E8E6F0E00C94CD099F3FFF
:1013800031F0915020F4879577956795B795880F40
:10139000911D9695879597F908959F938F937F93C5
:1013A0006F93FF93EF939B01AC010E940B09EF91A8
:1013B000FF910E94E1092F913F914F915F910C9411
:1013C0000B09DF93CF931F930F93FF92EF92DF925E
:1013D0007B018C01689406C0DA2EEF010E941E0981
:1013E000FE01E894A5912591359145915591A6F37B
:1013F000EF010E942F08FE019701A801DA9469F716
:10140000DF90EF90FF900F911F91CF91DF910895A2
:10141000A1E21A2EAA1BBB1BFD010DC0AA1FBB1FF8
:10142000EE1FFF1FA217B307E407F50720F0A21B6A
:10143000B30BE40BF50B661F771F881F991F1A94D7
:1014400069F760957095809590959B01AC01BD0101
:10145000CF010895EE0FFF1F0590F491E02D099440
:1014600081E090E0F8940C94E80CAEE0B0E0EBE39F
:10147000FAE00C94EE070D891E8986E08C831A83AE
:1014800009838FEF9FE79E838D83AE01475E5F4F99
:101490006F89788DCE0101960E94570AEF81F885F9
:1014A000E00FF11F10822E96E4E00C940A08ABE0E6
:1014B000B0E0EDE5FAE00C94E0076C017B018A01F5
:1014C000FC0117821682838181FFCCC1CE01019677
:1014D0003C01F6019381F70193FD859193FF819182
:1014E0007F01882309F4BAC1853239F493FD8591CF
:1014F00093FF81917F01853229F4B60190E00E942B
:101500004E0CE7CF912C212C312CFFE1F315D8F0B4
:101510008B3279F038F4803279F08332A1F4232DC4
:1015200020611DC08D3261F0803369F4232D21606C
:1015300016C0832D8260382EE32DE4603E2E2AC033
:10154000F32DF8601DC037FC2DC020ED280F2A3088
:1015500040F08E32B9F436FC81C1232D2064322E46
:1015600019C036FE06C08AE0989E200D1124922EE6
:1015700011C0EAE02E9E200D1124222EF32DF062E0
:101580003F2E08C08C3621F4832D8068382E02C08F
:10159000883641F4F70193FD859193FF81917F0196
:1015A0008111B3CF982F9F7D9554933028F40C5F11
:1015B0001F4F9FE399830DC0833631F0833771F05D
:1015C000833509F059C021C0F801808189830E5FFD
:1015D0001F4F88248394912C530113C02801F2E0FB
:1015E0004F0E511CF801A080B18036FE03C0692D5A
:1015F00070E002C06FEF7FEFC5010E94430C4C0109
:101600008201F32DFF773F2E16C0280122E0420E03
:10161000511CF801A080B18036FE03C0692D70E036
:1016200002C06FEF7FEFC5010E94380C4C01F32D13
:10163000F0683F2E820133FC1BC0822D90E088169B
:101640009906B0F4B60180E290E00E944E0C2A9414
:10165000F4CFF50137FC859137FE81915F01B6012A
:1016600090E00E944E0C21102A9421E0821A9108E9
:101670008114910471F7E8C0843611F0893641F580
:10168000F80137FE07C060817181828193810C5F10
:101690001F4F08C060817181072E000C880B990BC9
:1016A0000E5F1F4FF32DFF763F2E97FF09C09095D9
:1016B0008095709561957F4F8F4F9F4FF0683F2EBB
:1016C0002AE030E0A3010E948A0C882E861845C0CB
:1016D000853731F4232D2F7EB22E2AE030E025C04D
:1016E000932D997FB92E8F36C1F018F4883579F093
:1016F000B5C0803719F0883721F0B0C0E92FE0611C
:10170000BE2EB4FE0DC0FB2DF460BF2E09C034FE0A
:101710000AC0292F2660B22E06C028E030E005C09E
:1017200020E130E002C020E132E0F801B7FE07C05E
:1017300060817181828193810C5F1F4F06C060813F
:10174000718180E090E00E5F1F4FA3010E948A0C20
:10175000882E8618FB2DFF773F2E36FE0DC0232DD9
:101760002E7FA22E891458F434FE0BC032FC09C01F
:10177000832D8E7EA82E05C0B82CA32C03C0B82CB8
:1017800001C0B92CA4FE0FC0FE01E80DF11D80813F
:10179000803321F49A2D997EA92E09C0A2FE06C09D
:1017A000B394B39404C08A2D867809F0B394A3FC53
:1017B00011C0A0FE06C0B21488F4280C922C9B180D
:1017C0000EC0B21460F4B60180E290E00E944E0CAC
:1017D000B394F7CFB21418F42B1802C0982C212C14
:1017E000A4FE10C0B60180E390E00E944E0CA2FE61
:1017F00017C0A1FC03C088E790E002C088E590E034
:10180000B6010CC08A2D867859F0A1FE02C08BE289
:1018100001C080E2A7FC8DE2B60190E00E944E0C70
:10182000891438F4B60180E390E00E944E0C9A943B
:10183000F7CF8A94F301E80DF11D8081B60190E0A5
:101840000E944E0C8110F5CF222009F442CEB60141
:1018500080E290E00E944E0C2A94F6CFF601868139
:10186000978102C08FEF9FEF2B96E2E10C94FC076B
:10187000FC010590615070400110D8F7809590955B
:101880008E0F9F1F0895FC01615070400190011060
:10189000D8F7809590958E0F9F1F08950F931F93F3
:1018A000CF93DF93FB01238121FD03C08FEF9FEFD7
:1018B0002CC022FF16C046815781248135814217F2
:1018C000530744F4A081B1819D012F5F3F4F3183C5
:1018D00020838C93268137812F5F3F4F3783268368
:1018E00014C08B01EC01FB010084F185E02D09950A
:1018F000892BE1F6D80116968D919C911797019648
:1019000017969C938E931697CE01DF91CF911F91DE
:101910000F910895FA01AA27283051F1203181F161
:10192000E8946F936E7F6E5F7F4F8F4F9F4FAF4FE7
:10193000B1E03ED0B4E03CD0670F781F891F9A1FFA
:10194000A11D680F791F8A1F911DA11D6A0F711DAE
:10195000811D911DA11D20D009F468943F912AE0BA
:10196000269F11243019305D3193DEF6CF010895A2
:10197000462F4770405D4193B3E00FD0C9F7F6CFD3
:10198000462F4F70405D4A3318F0495D31FD40529B
:10199000419302D0A9F7EACFB4E0A6959795879531
:1019A00077956795BA95C9F7009761057105089510
:1019B0009B01AC010A2E06945795479537952795BC
:1019C000BA95C9F7620F731F841F951FA01D089554
:0419D000F894FFCFB9
:1019D400050054657374006F6B0000000000000084
:1019E400000000000000000000008201EB0019016B
:1019F400CF014A0128013C010D0A0048656C6C6F57
:101A040020576F726C640068656C6C6F0076616C53
:101A14007565735B636E745D203D202564202573BA
:101A2400007261643D25732C20776176655B695D86
:101A34003D25640067757465204C61756E650063AF
:101A44006E74203D2025640048616C6C6F005665FF
:041A54006C6F0000B3
:00000001FF
